{
  "_format": "hh-sol-artifact-1",
  "contractName": "MerkleTreeWithHistory",
  "sourceName": "contracts/MerkleTreeWithHistory.sol",
  "abi": [
    {
      "inputs": [
        {
          "internalType": "uint32",
          "name": "_levels",
          "type": "uint32"
        },
        {
          "internalType": "contract IHasher",
          "name": "_hasher",
          "type": "address"
        }
      ],
      "stateMutability": "nonpayable",
      "type": "constructor"
    },
    {
      "inputs": [],
      "name": "FIELD_SIZE",
      "outputs": [
        {
          "internalType": "uint256",
          "name": "",
          "type": "uint256"
        }
      ],
      "stateMutability": "view",
      "type": "function"
    },
    {
      "inputs": [],
      "name": "ROOT_HISTORY_SIZE",
      "outputs": [
        {
          "internalType": "uint32",
          "name": "",
          "type": "uint32"
        }
      ],
      "stateMutability": "view",
      "type": "function"
    },
    {
      "inputs": [],
      "name": "ZERO_VALUE",
      "outputs": [
        {
          "internalType": "uint256",
          "name": "",
          "type": "uint256"
        }
      ],
      "stateMutability": "view",
      "type": "function"
    },
    {
      "inputs": [],
      "name": "currentRootIndex",
      "outputs": [
        {
          "internalType": "uint32",
          "name": "",
          "type": "uint32"
        }
      ],
      "stateMutability": "view",
      "type": "function"
    },
    {
      "inputs": [
        {
          "internalType": "uint256",
          "name": "",
          "type": "uint256"
        }
      ],
      "name": "filledSubtrees",
      "outputs": [
        {
          "internalType": "bytes32",
          "name": "",
          "type": "bytes32"
        }
      ],
      "stateMutability": "view",
      "type": "function"
    },
    {
      "inputs": [],
      "name": "getLastRoot",
      "outputs": [
        {
          "internalType": "bytes32",
          "name": "",
          "type": "bytes32"
        }
      ],
      "stateMutability": "view",
      "type": "function"
    },
    {
      "inputs": [
        {
          "internalType": "contract IHasher",
          "name": "_hasher",
          "type": "address"
        },
        {
          "internalType": "bytes32",
          "name": "_left",
          "type": "bytes32"
        },
        {
          "internalType": "bytes32",
          "name": "_right",
          "type": "bytes32"
        }
      ],
      "name": "hashLeftRight",
      "outputs": [
        {
          "internalType": "bytes32",
          "name": "",
          "type": "bytes32"
        }
      ],
      "stateMutability": "pure",
      "type": "function"
    },
    {
      "inputs": [],
      "name": "hasher",
      "outputs": [
        {
          "internalType": "contract IHasher",
          "name": "",
          "type": "address"
        }
      ],
      "stateMutability": "view",
      "type": "function"
    },
    {
      "inputs": [
        {
          "internalType": "bytes32",
          "name": "_root",
          "type": "bytes32"
        }
      ],
      "name": "isKnownRoot",
      "outputs": [
        {
          "internalType": "bool",
          "name": "",
          "type": "bool"
        }
      ],
      "stateMutability": "view",
      "type": "function"
    },
    {
      "inputs": [],
      "name": "levels",
      "outputs": [
        {
          "internalType": "uint32",
          "name": "",
          "type": "uint32"
        }
      ],
      "stateMutability": "view",
      "type": "function"
    },
    {
      "inputs": [],
      "name": "nextIndex",
      "outputs": [
        {
          "internalType": "uint32",
          "name": "",
          "type": "uint32"
        }
      ],
      "stateMutability": "view",
      "type": "function"
    },
    {
      "inputs": [
        {
          "internalType": "uint256",
          "name": "",
          "type": "uint256"
        }
      ],
      "name": "roots",
      "outputs": [
        {
          "internalType": "bytes32",
          "name": "",
          "type": "bytes32"
        }
      ],
      "stateMutability": "view",
      "type": "function"
    },
    {
      "inputs": [
        {
          "internalType": "uint256",
          "name": "i",
          "type": "uint256"
        }
      ],
      "name": "zeros",
      "outputs": [
        {
          "internalType": "bytes32",
          "name": "",
          "type": "bytes32"
        }
      ],
      "stateMutability": "pure",
      "type": "function"
    }
  ],
  "bytecode": "0x60a06040526000600360006101000a81548163ffffffff021916908363ffffffff1602179055506000600360046101000a81548163ffffffff021916908363ffffffff1602179055503480156200005557600080fd5b5060405162001ef638038062001ef683398181016040528101906200007b919062000940565b60008263ffffffff1611620000c7576040517f08c379a0000000000000000000000000000000000000000000000000000000008152600401620000be9062000a18565b60405180910390fd5b60208263ffffffff161062000113576040517f08c379a00000000000000000000000000000000000000000000000000000000081526004016200010a90620009f6565b60405180910390fd5b816000806101000a81548163ffffffff021916908363ffffffff1602179055508073ffffffffffffffffffffffffffffffffffffffff1660808173ffffffffffffffffffffffffffffffffffffffff1660601b8152505060005b8263ffffffff168163ffffffff161015620001cc57620001998163ffffffff166200021160201b60201c565b600160008363ffffffff168152602001908152602001600020819055508080620001c39062000b00565b9150506200016d565b50620001f2600183620001e0919062000a6d565b63ffffffff166200021160201b60201c565b6002600080815260200190815260200160002081905550505062000c36565b60008082141562000248577f2fe54c60d3acabf3343a35b6eba15db4821b340f76e741e2249685ed4899af6c60001b90506200090d565b60018214156200027e577f256a6135777eee2fd26f54b8b7037a25439d5235caee224154186d2b8a52e31d60001b90506200090d565b6002821415620002b4577f1151949895e82ab19924de92c40a3d6f7bcb60d92b00504b8199613683f0c20060001b90506200090d565b6003821415620002ea577f20121ee811489ff8d61f09fb89e313f14959a0f28bb428a20dba6b0b068b3bdb60001b90506200090d565b600482141562000320577f0a89ca6ffa14cc462cfedb842c30ed221a50a3d6bf022a6a57dc82ab24c157c960001b90506200090d565b600582141562000356577f24ca05c2b5cd42e890d6be94c68d0689f4f21c9cec9c0f13fe41d566dfb5495960001b90506200090d565b60068214156200038c577f1ccb97c932565a92c60156bdba2d08f3bf1377464e025cee765679e604a7315c60001b90506200090d565b6007821415620003c2577f19156fbd7d1a8bf5cba8909367de1b624534ebab4f0f79e003bccdd1b182bdb460001b90506200090d565b6008821415620003f8577f261af8c1f0912e465744641409f622d466c3920ac6e5ff37e36604cb11dfff8060001b90506200090d565b60098214156200042d577e58459724ff6ca5a1652fcbc3e82b93895cf08e975b19beab3f54c217d1c00760001b90506200090d565b600a82141562000463577f1f04ef20dee48d39984d8eabe768a70eafa6310ad20849d4573c3c40c2ad1e3060001b90506200090d565b600b82141562000499577f1bea3dec5dab51567ce7e200a30f7ba6d4276aeaa53e2686f962a46c66d511e560001b90506200090d565b600c821415620004cf577f0ee0f941e2da4b9e31c3ca97a40d8fa9ce68d97c084177071b3cb46cd3372f0f60001b90506200090d565b600d82141562000505577f1ca9503e8935884501bbaf20be14eb4c46b89772c97b96e3b2ebf3a36a948bbd60001b90506200090d565b600e8214156200053b577f133a80e30697cd55d8f7d4b0965b7be24057ba5dc3da898ee2187232446cb10860001b90506200090d565b600f82141562000571577f13e6d8fc88839ed76e182c2a779af5b2c0da9dd18c90427a644f7e148a6253b660001b90506200090d565b6010821415620005a7577f1eb16b057a477f4bc8f572ea6bee39561098f78f15bfb3699dcbb7bd8db6185460001b90506200090d565b6011821415620005dd577f0da2cb16a1ceaabf1c16b838f7a9e3f2a3a3088d9e0a6debaa748114620696ea60001b90506200090d565b601282141562000613577f24a3b3d822420b14b5d8cb6c28a574f01e98ea9e940551d2ebd75cee12649f9d60001b90506200090d565b601382141562000649577f198622acbd783d1b0d9064105b1fc8e4d8889de95c4c519b3f635809fe6afc0560001b90506200090d565b60148214156200067f577f29d7ed391256ccc3ea596c86e933b89ff339d25ea8ddced975ae2fe30b5296d460001b90506200090d565b6015821415620006b5577f19be59f2f0413ce78c0c3703a3a5451b1d7f39629fa33abd11548a76065b296760001b90506200090d565b6016821415620006eb577f1ff3f61797e538b70e619310d33f2a063e7eb59104e112e95738da1254dc345360001b90506200090d565b601782141562000721577f10c16ae9959cf8358980d9dd9616e48228737310a10e2b6b731c1a548f036c4860001b90506200090d565b601882141562000757577f0ba433a63174a90ac20992e75e3095496812b652685b5e1a2eae0b1bf4e8fcd160001b90506200090d565b60198214156200078d577f019ddb9df2bc98d987d0dfeca9d2b643deafab8f7036562e627c3667266a044c60001b90506200090d565b601a821415620007c3577f2d3c88b23175c5a5565db928414c66d1912b11acf974b2e644caaac04739ce9960001b90506200090d565b601b821415620007f9577f2eab55f6ae4e66e32c5189eed5c470840863445760f5ed7e7b69b2a62600f35460001b90506200090d565b601c8214156200082e577e2df37a2642621802383cf952bf4dd1f32e05433beeb1fd41031fb7eace979d60001b90506200090d565b601d82141562000864577f104aeb41435db66c3e62feccc1d6f5d98d0a0ed75d1374db457cf462e3a1f42760001b90506200090d565b601e8214156200089a577f1f3c6fd858e9a7d4b0d1f38e256a09d81d5a5e3c963987e2d4b814cfab7c6ebb60001b90506200090d565b601f821415620008d0577f2c7a07d20dff79d01fecedc1134284a8d08436606c93693b67e333f671bf69cc60001b90506200090d565b6040517f08c379a0000000000000000000000000000000000000000000000000000000008152600401620009049062000a3a565b60405180910390fd5b919050565b600081519050620009238162000c02565b92915050565b6000815190506200093a8162000c1c565b92915050565b600080604083850312156200095457600080fd5b6000620009648582860162000929565b9250506020620009778582860162000912565b9150509250929050565b600062000990601e8362000a5c565b91506200099d8262000b61565b602082019050919050565b6000620009b760238362000a5c565b9150620009c48262000b8a565b604082019050919050565b6000620009de60138362000a5c565b9150620009eb8262000bd9565b602082019050919050565b6000602082019050818103600083015262000a118162000981565b9050919050565b6000602082019050818103600083015262000a3381620009a8565b9050919050565b6000602082019050818103600083015262000a5581620009cf565b9050919050565b600082825260208201905092915050565b600062000a7a8262000af0565b915062000a878362000af0565b92508282101562000a9d5762000a9c62000b32565b5b828203905092915050565b600062000ab58262000ad0565b9050919050565b600062000ac98262000aa8565b9050919050565b600073ffffffffffffffffffffffffffffffffffffffff82169050919050565b600063ffffffff82169050919050565b600062000b0d8262000af0565b915063ffffffff82141562000b275762000b2662000b32565b5b600182019050919050565b7f4e487b7100000000000000000000000000000000000000000000000000000000600052601160045260246000fd5b7f5f6c6576656c732073686f756c64206265206c657373207468616e2033320000600082015250565b7f5f6c6576656c732073686f756c642062652067726561746572207468616e207a60008201527f65726f0000000000000000000000000000000000000000000000000000000000602082015250565b7f496e646578206f7574206f6620626f756e647300000000000000000000000000600082015250565b62000c0d8162000abc565b811462000c1957600080fd5b50565b62000c278162000af0565b811462000c3357600080fd5b50565b60805160601c6112a162000c556000396000610d3e01526112a16000f3fe608060405234801561001057600080fd5b50600436106100cf5760003560e01c8063c2b40ae41161008c578063ec73295911610066578063ec7329591461022a578063ed33639f14610248578063f178e47c14610266578063fc7e9c6f14610296576100cf565b8063c2b40ae4146101ac578063cd87a3b4146101dc578063e8295588146101fa576100cf565b8063414a37ba146100d45780634ecf518b146100f25780636d9833e3146101105780638ea3099e1461014057806390eeb02b14610170578063ba70f7571461018e575b600080fd5b6100dc6102b4565b6040516100e99190611024565b60405180910390f35b6100fa6102d8565b6040516101079190611068565b60405180910390f35b61012a60048036038101906101259190610de2565b6102ec565b6040516101379190610f73565b60405180910390f35b61015a60048036038101906101559190610e0b565b61038d565b6040516101679190610f8e565b60405180910390f35b6101786105f3565b6040516101859190611068565b60405180910390f35b610196610609565b6040516101a39190610f8e565b60405180910390f35b6101c660048036038101906101c19190610e5a565b61063c565b6040516101d39190610f8e565b60405180910390f35b6101e4610654565b6040516101f19190611068565b60405180910390f35b610214600480360381019061020f9190610e5a565b610659565b6040516102219190610f8e565b60405180910390f35b610232610d18565b60405161023f9190611024565b60405180910390f35b610250610d3c565b60405161025d9190610fa9565b60405180910390f35b610280600480360381019061027b9190610e5a565b610d60565b60405161028d9190610f8e565b60405180910390f35b61029e610d78565b6040516102ab9190611068565b60405180910390f35b7f30644e72e131a029b85045b68181585d2833e84879b9709143e1f593f000000181565b60008054906101000a900463ffffffff1681565b60008060001b8214156103025760009050610388565b6000600360009054906101000a900463ffffffff16905060008190505b600260008263ffffffff1681526020019081526020016000205484141561034b57600192505050610388565b60008163ffffffff16141561035f57601e90505b808061036a9061112c565b9150508163ffffffff168163ffffffff16141561031f576000925050505b919050565b60007f30644e72e131a029b85045b68181585d2833e84879b9709143e1f593f00000018360001c106103f4576040517f08c379a00000000000000000000000000000000000000000000000000000000081526004016103eb90610fc4565b60405180910390fd5b7f30644e72e131a029b85045b68181585d2833e84879b9709143e1f593f00000018260001c10610459576040517f08c379a000000000000000000000000000000000000000000000000000000000815260040161045090610fe4565b60405180910390fd5b60008360001c905060008573ffffffffffffffffffffffffffffffffffffffff1663f47d33b583836040518363ffffffff1660e01b815260040161049e92919061103f565b604080518083038186803b1580156104b557600080fd5b505afa1580156104c9573d6000803e3d6000fd5b505050506040513d601f19601f820116820180604052508101906104ed9190610e83565b80925081935050507f30644e72e131a029b85045b68181585d2833e84879b9709143e1f593f00000018061054a577f4e487b7100000000000000000000000000000000000000000000000000000000600052601260045260246000fd5b8460001c830891508573ffffffffffffffffffffffffffffffffffffffff1663f47d33b583836040518363ffffffff1660e01b815260040161058d92919061103f565b604080518083038186803b1580156105a457600080fd5b505afa1580156105b8573d6000803e3d6000fd5b505050506040513d601f19601f820116820180604052508101906105dc9190610e83565b80925081935050508160001b925050509392505050565b600360009054906101000a900463ffffffff1681565b600060026000600360009054906101000a900463ffffffff1663ffffffff16815260200190815260200160002054905090565b60026020528060005260406000206000915090505481565b601e81565b60008082141561068e577f2fe54c60d3acabf3343a35b6eba15db4821b340f76e741e2249685ed4899af6c60001b9050610d13565b60018214156106c2577f256a6135777eee2fd26f54b8b7037a25439d5235caee224154186d2b8a52e31d60001b9050610d13565b60028214156106f6577f1151949895e82ab19924de92c40a3d6f7bcb60d92b00504b8199613683f0c20060001b9050610d13565b600382141561072a577f20121ee811489ff8d61f09fb89e313f14959a0f28bb428a20dba6b0b068b3bdb60001b9050610d13565b600482141561075e577f0a89ca6ffa14cc462cfedb842c30ed221a50a3d6bf022a6a57dc82ab24c157c960001b9050610d13565b6005821415610792577f24ca05c2b5cd42e890d6be94c68d0689f4f21c9cec9c0f13fe41d566dfb5495960001b9050610d13565b60068214156107c6577f1ccb97c932565a92c60156bdba2d08f3bf1377464e025cee765679e604a7315c60001b9050610d13565b60078214156107fa577f19156fbd7d1a8bf5cba8909367de1b624534ebab4f0f79e003bccdd1b182bdb460001b9050610d13565b600882141561082e577f261af8c1f0912e465744641409f622d466c3920ac6e5ff37e36604cb11dfff8060001b9050610d13565b6009821415610861577e58459724ff6ca5a1652fcbc3e82b93895cf08e975b19beab3f54c217d1c00760001b9050610d13565b600a821415610895577f1f04ef20dee48d39984d8eabe768a70eafa6310ad20849d4573c3c40c2ad1e3060001b9050610d13565b600b8214156108c9577f1bea3dec5dab51567ce7e200a30f7ba6d4276aeaa53e2686f962a46c66d511e560001b9050610d13565b600c8214156108fd577f0ee0f941e2da4b9e31c3ca97a40d8fa9ce68d97c084177071b3cb46cd3372f0f60001b9050610d13565b600d821415610931577f1ca9503e8935884501bbaf20be14eb4c46b89772c97b96e3b2ebf3a36a948bbd60001b9050610d13565b600e821415610965577f133a80e30697cd55d8f7d4b0965b7be24057ba5dc3da898ee2187232446cb10860001b9050610d13565b600f821415610999577f13e6d8fc88839ed76e182c2a779af5b2c0da9dd18c90427a644f7e148a6253b660001b9050610d13565b60108214156109cd577f1eb16b057a477f4bc8f572ea6bee39561098f78f15bfb3699dcbb7bd8db6185460001b9050610d13565b6011821415610a01577f0da2cb16a1ceaabf1c16b838f7a9e3f2a3a3088d9e0a6debaa748114620696ea60001b9050610d13565b6012821415610a35577f24a3b3d822420b14b5d8cb6c28a574f01e98ea9e940551d2ebd75cee12649f9d60001b9050610d13565b6013821415610a69577f198622acbd783d1b0d9064105b1fc8e4d8889de95c4c519b3f635809fe6afc0560001b9050610d13565b6014821415610a9d577f29d7ed391256ccc3ea596c86e933b89ff339d25ea8ddced975ae2fe30b5296d460001b9050610d13565b6015821415610ad1577f19be59f2f0413ce78c0c3703a3a5451b1d7f39629fa33abd11548a76065b296760001b9050610d13565b6016821415610b05577f1ff3f61797e538b70e619310d33f2a063e7eb59104e112e95738da1254dc345360001b9050610d13565b6017821415610b39577f10c16ae9959cf8358980d9dd9616e48228737310a10e2b6b731c1a548f036c4860001b9050610d13565b6018821415610b6d577f0ba433a63174a90ac20992e75e3095496812b652685b5e1a2eae0b1bf4e8fcd160001b9050610d13565b6019821415610ba1577f019ddb9df2bc98d987d0dfeca9d2b643deafab8f7036562e627c3667266a044c60001b9050610d13565b601a821415610bd5577f2d3c88b23175c5a5565db928414c66d1912b11acf974b2e644caaac04739ce9960001b9050610d13565b601b821415610c09577f2eab55f6ae4e66e32c5189eed5c470840863445760f5ed7e7b69b2a62600f35460001b9050610d13565b601c821415610c3c577e2df37a2642621802383cf952bf4dd1f32e05433beeb1fd41031fb7eace979d60001b9050610d13565b601d821415610c70577f104aeb41435db66c3e62feccc1d6f5d98d0a0ed75d1374db457cf462e3a1f42760001b9050610d13565b601e821415610ca4577f1f3c6fd858e9a7d4b0d1f38e256a09d81d5a5e3c963987e2d4b814cfab7c6ebb60001b9050610d13565b601f821415610cd8577f2c7a07d20dff79d01fecedc1134284a8d08436606c93693b67e333f671bf69cc60001b9050610d13565b6040517f08c379a0000000000000000000000000000000000000000000000000000000008152600401610d0a90611004565b60405180910390fd5b919050565b7f2fe54c60d3acabf3343a35b6eba15db4821b340f76e741e2249685ed4899af6c81565b7f000000000000000000000000000000000000000000000000000000000000000081565b60016020528060005260406000206000915090505481565b600360049054906101000a900463ffffffff1681565b600081359050610d9d81611226565b92915050565b600081359050610db28161123d565b92915050565b600081359050610dc781611254565b92915050565b600081519050610ddc81611254565b92915050565b600060208284031215610df457600080fd5b6000610e0284828501610d8e565b91505092915050565b600080600060608486031215610e2057600080fd5b6000610e2e86828701610da3565b9350506020610e3f86828701610d8e565b9250506040610e5086828701610d8e565b9150509250925092565b600060208284031215610e6c57600080fd5b6000610e7a84828501610db8565b91505092915050565b60008060408385031215610e9657600080fd5b6000610ea485828601610dcd565b9250506020610eb585828601610dcd565b9150509250929050565b610ec8816110a6565b82525050565b610ed7816110b2565b82525050565b610ee681611108565b82525050565b6000610ef9602083611083565b9150610f0482611185565b602082019050919050565b6000610f1c602183611083565b9150610f27826111ae565b604082019050919050565b6000610f3f601383611083565b9150610f4a826111fd565b602082019050919050565b610f5e816110ee565b82525050565b610f6d816110f8565b82525050565b6000602082019050610f886000830184610ebf565b92915050565b6000602082019050610fa36000830184610ece565b92915050565b6000602082019050610fbe6000830184610edd565b92915050565b60006020820190508181036000830152610fdd81610eec565b9050919050565b60006020820190508181036000830152610ffd81610f0f565b9050919050565b6000602082019050818103600083015261101d81610f32565b9050919050565b60006020820190506110396000830184610f55565b92915050565b60006040820190506110546000830185610f55565b6110616020830184610f55565b9392505050565b600060208201905061107d6000830184610f64565b92915050565b600082825260208201905092915050565b600061109f826110ce565b9050919050565b60008115159050919050565b6000819050919050565b60006110c782611094565b9050919050565b600073ffffffffffffffffffffffffffffffffffffffff82169050919050565b6000819050919050565b600063ffffffff82169050919050565b60006111138261111a565b9050919050565b6000611125826110ce565b9050919050565b6000611137826110f8565b9150600082141561114b5761114a611156565b5b600182039050919050565b7f4e487b7100000000000000000000000000000000000000000000000000000000600052601160045260246000fd5b7f5f6c6566742073686f756c6420626520696e7369646520746865206669656c64600082015250565b7f5f72696768742073686f756c6420626520696e7369646520746865206669656c60008201527f6400000000000000000000000000000000000000000000000000000000000000602082015250565b7f496e646578206f7574206f6620626f756e647300000000000000000000000000600082015250565b61122f816110b2565b811461123a57600080fd5b50565b611246816110bc565b811461125157600080fd5b50565b61125d816110ee565b811461126857600080fd5b5056fea2646970667358221220dc91dbc1aa8e5ceced33f33a6c35b7266b8770ec14d07a505a27834a8e17718464736f6c63430008040033",
  "linkReferences": {},
  "deployedLinkReferences": {}
}