{
  "_format": "hh-sol-artifact-1",
  "contractName": "ETHTornado",
  "sourceName": "contracts/ETHTornado.sol",
  "abi": [
    {
      "inputs": [
        {
          "internalType": "contract IVerifier",
          "name": "_verifier",
          "type": "address"
        },
        {
          "internalType": "contract IHasher",
          "name": "_hasher",
          "type": "address"
        },
        {
          "internalType": "uint256",
          "name": "_denomination",
          "type": "uint256"
        },
        {
          "internalType": "uint32",
          "name": "_merkleTreeHeight",
          "type": "uint32"
        }
      ],
      "stateMutability": "nonpayable",
      "type": "constructor"
    },
    {
      "anonymous": false,
      "inputs": [
        {
          "indexed": true,
          "internalType": "bytes32",
          "name": "commitment",
          "type": "bytes32"
        },
        {
          "indexed": false,
          "internalType": "uint32",
          "name": "leafIndex",
          "type": "uint32"
        },
        {
          "indexed": false,
          "internalType": "uint256",
          "name": "timestamp",
          "type": "uint256"
        }
      ],
      "name": "Deposit",
      "type": "event"
    },
    {
      "anonymous": false,
      "inputs": [
        {
          "indexed": false,
          "internalType": "address",
          "name": "to",
          "type": "address"
        },
        {
          "indexed": false,
          "internalType": "bytes32",
          "name": "nullifierHash",
          "type": "bytes32"
        },
        {
          "indexed": true,
          "internalType": "address",
          "name": "relayer",
          "type": "address"
        },
        {
          "indexed": false,
          "internalType": "uint256",
          "name": "fee",
          "type": "uint256"
        }
      ],
      "name": "Withdrawal",
      "type": "event"
    },
    {
      "inputs": [],
      "name": "FIELD_SIZE",
      "outputs": [
        {
          "internalType": "uint256",
          "name": "",
          "type": "uint256"
        }
      ],
      "stateMutability": "view",
      "type": "function"
    },
    {
      "inputs": [],
      "name": "ROOT_HISTORY_SIZE",
      "outputs": [
        {
          "internalType": "uint32",
          "name": "",
          "type": "uint32"
        }
      ],
      "stateMutability": "view",
      "type": "function"
    },
    {
      "inputs": [],
      "name": "ZERO_VALUE",
      "outputs": [
        {
          "internalType": "uint256",
          "name": "",
          "type": "uint256"
        }
      ],
      "stateMutability": "view",
      "type": "function"
    },
    {
      "inputs": [
        {
          "internalType": "bytes32",
          "name": "",
          "type": "bytes32"
        }
      ],
      "name": "commitments",
      "outputs": [
        {
          "internalType": "bool",
          "name": "",
          "type": "bool"
        }
      ],
      "stateMutability": "view",
      "type": "function"
    },
    {
      "inputs": [],
      "name": "currentRootIndex",
      "outputs": [
        {
          "internalType": "uint32",
          "name": "",
          "type": "uint32"
        }
      ],
      "stateMutability": "view",
      "type": "function"
    },
    {
      "inputs": [],
      "name": "denomination",
      "outputs": [
        {
          "internalType": "uint256",
          "name": "",
          "type": "uint256"
        }
      ],
      "stateMutability": "view",
      "type": "function"
    },
    {
      "inputs": [
        {
          "internalType": "bytes32",
          "name": "_commitment",
          "type": "bytes32"
        }
      ],
      "name": "deposit",
      "outputs": [],
      "stateMutability": "payable",
      "type": "function"
    },
    {
      "inputs": [
        {
          "internalType": "uint256",
          "name": "",
          "type": "uint256"
        }
      ],
      "name": "filledSubtrees",
      "outputs": [
        {
          "internalType": "bytes32",
          "name": "",
          "type": "bytes32"
        }
      ],
      "stateMutability": "view",
      "type": "function"
    },
    {
      "inputs": [],
      "name": "getLastRoot",
      "outputs": [
        {
          "internalType": "bytes32",
          "name": "",
          "type": "bytes32"
        }
      ],
      "stateMutability": "view",
      "type": "function"
    },
    {
      "inputs": [
        {
          "internalType": "contract IHasher",
          "name": "_hasher",
          "type": "address"
        },
        {
          "internalType": "bytes32",
          "name": "_left",
          "type": "bytes32"
        },
        {
          "internalType": "bytes32",
          "name": "_right",
          "type": "bytes32"
        }
      ],
      "name": "hashLeftRight",
      "outputs": [
        {
          "internalType": "bytes32",
          "name": "",
          "type": "bytes32"
        }
      ],
      "stateMutability": "pure",
      "type": "function"
    },
    {
      "inputs": [],
      "name": "hasher",
      "outputs": [
        {
          "internalType": "contract IHasher",
          "name": "",
          "type": "address"
        }
      ],
      "stateMutability": "view",
      "type": "function"
    },
    {
      "inputs": [
        {
          "internalType": "bytes32",
          "name": "_root",
          "type": "bytes32"
        }
      ],
      "name": "isKnownRoot",
      "outputs": [
        {
          "internalType": "bool",
          "name": "",
          "type": "bool"
        }
      ],
      "stateMutability": "view",
      "type": "function"
    },
    {
      "inputs": [
        {
          "internalType": "bytes32",
          "name": "_nullifierHash",
          "type": "bytes32"
        }
      ],
      "name": "isSpent",
      "outputs": [
        {
          "internalType": "bool",
          "name": "",
          "type": "bool"
        }
      ],
      "stateMutability": "view",
      "type": "function"
    },
    {
      "inputs": [
        {
          "internalType": "bytes32[]",
          "name": "_nullifierHashes",
          "type": "bytes32[]"
        }
      ],
      "name": "isSpentArray",
      "outputs": [
        {
          "internalType": "bool[]",
          "name": "spent",
          "type": "bool[]"
        }
      ],
      "stateMutability": "view",
      "type": "function"
    },
    {
      "inputs": [],
      "name": "levels",
      "outputs": [
        {
          "internalType": "uint32",
          "name": "",
          "type": "uint32"
        }
      ],
      "stateMutability": "view",
      "type": "function"
    },
    {
      "inputs": [],
      "name": "nextIndex",
      "outputs": [
        {
          "internalType": "uint32",
          "name": "",
          "type": "uint32"
        }
      ],
      "stateMutability": "view",
      "type": "function"
    },
    {
      "inputs": [
        {
          "internalType": "bytes32",
          "name": "",
          "type": "bytes32"
        }
      ],
      "name": "nullifierHashes",
      "outputs": [
        {
          "internalType": "bool",
          "name": "",
          "type": "bool"
        }
      ],
      "stateMutability": "view",
      "type": "function"
    },
    {
      "inputs": [
        {
          "internalType": "uint256",
          "name": "",
          "type": "uint256"
        }
      ],
      "name": "roots",
      "outputs": [
        {
          "internalType": "bytes32",
          "name": "",
          "type": "bytes32"
        }
      ],
      "stateMutability": "view",
      "type": "function"
    },
    {
      "inputs": [],
      "name": "verifier",
      "outputs": [
        {
          "internalType": "contract IVerifier",
          "name": "",
          "type": "address"
        }
      ],
      "stateMutability": "view",
      "type": "function"
    },
    {
      "inputs": [
        {
          "internalType": "bytes",
          "name": "_proof",
          "type": "bytes"
        },
        {
          "internalType": "uint256[]",
          "name": "pubSignals",
          "type": "uint256[]"
        },
        {
          "internalType": "bytes32",
          "name": "_root",
          "type": "bytes32"
        },
        {
          "internalType": "bytes32",
          "name": "_nullifierHash",
          "type": "bytes32"
        },
        {
          "internalType": "address payable",
          "name": "_recipient",
          "type": "address"
        },
        {
          "internalType": "address payable",
          "name": "_relayer",
          "type": "address"
        },
        {
          "internalType": "uint256",
          "name": "_fee",
          "type": "uint256"
        },
        {
          "internalType": "uint256",
          "name": "_refund",
          "type": "uint256"
        }
      ],
      "name": "withdraw",
      "outputs": [],
      "stateMutability": "payable",
      "type": "function"
    },
    {
      "inputs": [
        {
          "internalType": "uint256",
          "name": "i",
          "type": "uint256"
        }
      ],
      "name": "zeros",
      "outputs": [
        {
          "internalType": "bytes32",
          "name": "",
          "type": "bytes32"
        }
      ],
      "stateMutability": "pure",
      "type": "function"
    }
  ],
  "bytecode": "0x60c06040526000600360006101000a81548163ffffffff021916908363ffffffff1602179055506000600360046101000a81548163ffffffff021916908363ffffffff1602179055503480156200005557600080fd5b5060405162002bf738038062002bf7833981810160405260808110156200007b57600080fd5b810190808051906020019092919080519060200190929190805190602001909291908051906020019092919050505083838383808360008263ffffffff161162000111576040517f08c379a000000000000000000000000000000000000000000000000000000000815260040180806020018281038252602381526020018062002bd46023913960400191505060405180910390fd5b60208263ffffffff16106200018e576040517f08c379a000000000000000000000000000000000000000000000000000000000815260040180806020018281038252601e8152602001807f5f6c6576656c732073686f756c64206265206c657373207468616e203332000081525060200191505060405180910390fd5b816000806101000a81548163ffffffff021916908363ffffffff1602179055508073ffffffffffffffffffffffffffffffffffffffff1660808173ffffffffffffffffffffffffffffffffffffffff1660601b8152505060005b8263ffffffff168163ffffffff1610156200023f57620002148163ffffffff166200032260201b60201c565b600160008363ffffffff168152602001908152602001600020819055508080600101915050620001e8565b506200025a6001830363ffffffff166200032260201b60201c565b60026000808152602001908152602001600020819055505050600160048190555060008211620002d6576040517f08c379a000000000000000000000000000000000000000000000000000000000815260040180806020018281038252602581526020018062002baf6025913960400191505060405180910390fd5b8373ffffffffffffffffffffffffffffffffffffffff1660a08173ffffffffffffffffffffffffffffffffffffffff1660601b8152505081600581905550505050505050505062000a54565b60008082141562000359577f2fe54c60d3acabf3343a35b6eba15db4821b340f76e741e2249685ed4899af6c60001b905062000a4f565b60018214156200038f577f256a6135777eee2fd26f54b8b7037a25439d5235caee224154186d2b8a52e31d60001b905062000a4f565b6002821415620003c5577f1151949895e82ab19924de92c40a3d6f7bcb60d92b00504b8199613683f0c20060001b905062000a4f565b6003821415620003fb577f20121ee811489ff8d61f09fb89e313f14959a0f28bb428a20dba6b0b068b3bdb60001b905062000a4f565b600482141562000431577f0a89ca6ffa14cc462cfedb842c30ed221a50a3d6bf022a6a57dc82ab24c157c960001b905062000a4f565b600582141562000467577f24ca05c2b5cd42e890d6be94c68d0689f4f21c9cec9c0f13fe41d566dfb5495960001b905062000a4f565b60068214156200049d577f1ccb97c932565a92c60156bdba2d08f3bf1377464e025cee765679e604a7315c60001b905062000a4f565b6007821415620004d3577f19156fbd7d1a8bf5cba8909367de1b624534ebab4f0f79e003bccdd1b182bdb460001b905062000a4f565b600882141562000509577f261af8c1f0912e465744641409f622d466c3920ac6e5ff37e36604cb11dfff8060001b905062000a4f565b60098214156200053e577e58459724ff6ca5a1652fcbc3e82b93895cf08e975b19beab3f54c217d1c00760001b905062000a4f565b600a82141562000574577f1f04ef20dee48d39984d8eabe768a70eafa6310ad20849d4573c3c40c2ad1e3060001b905062000a4f565b600b821415620005aa577f1bea3dec5dab51567ce7e200a30f7ba6d4276aeaa53e2686f962a46c66d511e560001b905062000a4f565b600c821415620005e0577f0ee0f941e2da4b9e31c3ca97a40d8fa9ce68d97c084177071b3cb46cd3372f0f60001b905062000a4f565b600d82141562000616577f1ca9503e8935884501bbaf20be14eb4c46b89772c97b96e3b2ebf3a36a948bbd60001b905062000a4f565b600e8214156200064c577f133a80e30697cd55d8f7d4b0965b7be24057ba5dc3da898ee2187232446cb10860001b905062000a4f565b600f82141562000682577f13e6d8fc88839ed76e182c2a779af5b2c0da9dd18c90427a644f7e148a6253b660001b905062000a4f565b6010821415620006b8577f1eb16b057a477f4bc8f572ea6bee39561098f78f15bfb3699dcbb7bd8db6185460001b905062000a4f565b6011821415620006ee577f0da2cb16a1ceaabf1c16b838f7a9e3f2a3a3088d9e0a6debaa748114620696ea60001b905062000a4f565b601282141562000724577f24a3b3d822420b14b5d8cb6c28a574f01e98ea9e940551d2ebd75cee12649f9d60001b905062000a4f565b60138214156200075a577f198622acbd783d1b0d9064105b1fc8e4d8889de95c4c519b3f635809fe6afc0560001b905062000a4f565b601482141562000790577f29d7ed391256ccc3ea596c86e933b89ff339d25ea8ddced975ae2fe30b5296d460001b905062000a4f565b6015821415620007c6577f19be59f2f0413ce78c0c3703a3a5451b1d7f39629fa33abd11548a76065b296760001b905062000a4f565b6016821415620007fc577f1ff3f61797e538b70e619310d33f2a063e7eb59104e112e95738da1254dc345360001b905062000a4f565b601782141562000832577f10c16ae9959cf8358980d9dd9616e48228737310a10e2b6b731c1a548f036c4860001b905062000a4f565b601882141562000868577f0ba433a63174a90ac20992e75e3095496812b652685b5e1a2eae0b1bf4e8fcd160001b905062000a4f565b60198214156200089e577f019ddb9df2bc98d987d0dfeca9d2b643deafab8f7036562e627c3667266a044c60001b905062000a4f565b601a821415620008d4577f2d3c88b23175c5a5565db928414c66d1912b11acf974b2e644caaac04739ce9960001b905062000a4f565b601b8214156200090a577f2eab55f6ae4e66e32c5189eed5c470840863445760f5ed7e7b69b2a62600f35460001b905062000a4f565b601c8214156200093f577e2df37a2642621802383cf952bf4dd1f32e05433beeb1fd41031fb7eace979d60001b905062000a4f565b601d82141562000975577f104aeb41435db66c3e62feccc1d6f5d98d0a0ed75d1374db457cf462e3a1f42760001b905062000a4f565b601e821415620009ab577f1f3c6fd858e9a7d4b0d1f38e256a09d81d5a5e3c963987e2d4b814cfab7c6ebb60001b905062000a4f565b601f821415620009e1577f2c7a07d20dff79d01fecedc1134284a8d08436606c93693b67e333f671bf69cc60001b905062000a4f565b6040517f08c379a00000000000000000000000000000000000000000000000000000000081526004018080602001828103825260138152602001807f496e646578206f7574206f6620626f756e64730000000000000000000000000081525060200191505060405180910390fd5b919050565b60805160601c60a05160601c61212762000a886000398061086c5280610ad0525080611a705280611e5052506121276000f3fe60806040526004361061012a5760003560e01c80639fa12d0b116100ab578063e5285dcc1161006f578063e5285dcc146106be578063e82955881461070f578063ec7329591461075e578063ed33639f14610789578063f178e47c146107ca578063fc7e9c6f146108195761012a565b80639fa12d0b1461050a578063b214faa5146105e5578063ba70f75714610613578063c2b40ae41461063e578063cd87a3b41461068d5761012a565b80636d9833e3116100f25780636d9833e314610393578063839df945146103e45780638bca6d16146104355780638ea3099e1461046057806390eeb02b146104d95761012a565b806317cc915c1461012f5780632b7ac3f314610180578063414a37ba146101c15780634ecf518b146101ec5780635e3353d71461021d575b600080fd5b34801561013b57600080fd5b506101686004803603602081101561015257600080fd5b810190808035906020019092919050505061084a565b60405180821515815260200191505060405180910390f35b34801561018c57600080fd5b5061019561086a565b604051808273ffffffffffffffffffffffffffffffffffffffff16815260200191505060405180910390f35b3480156101cd57600080fd5b506101d661088e565b6040518082815260200191505060405180910390f35b3480156101f857600080fd5b506102016108b2565b604051808263ffffffff16815260200191505060405180910390f35b610391600480360361010081101561023457600080fd5b810190808035906020019064010000000081111561025157600080fd5b82018360208201111561026357600080fd5b8035906020019184600183028401116401000000008311171561028557600080fd5b9091929391929390803590602001906401000000008111156102a657600080fd5b8201836020820111156102b857600080fd5b803590602001918460208302840111640100000000831117156102da57600080fd5b919080806020026020016040519081016040528093929190818152602001838360200280828437600081840152601f19601f8201169050808301925050505050505091929192908035906020019092919080359060200190929190803573ffffffffffffffffffffffffffffffffffffffff169060200190929190803573ffffffffffffffffffffffffffffffffffffffff16906020019092919080359060200190929190803590602001909291905050506108c6565b005b34801561039f57600080fd5b506103cc600480360360208110156103b657600080fd5b8101908080359060200190929190505050610d22565b60405180821515815260200191505060405180910390f35b3480156103f057600080fd5b5061041d6004803603602081101561040757600080fd5b8101908080359060200190929190505050610dbe565b60405180821515815260200191505060405180910390f35b34801561044157600080fd5b5061044a610dde565b6040518082815260200191505060405180910390f35b34801561046c57600080fd5b506104c36004803603606081101561048357600080fd5b81019080803573ffffffffffffffffffffffffffffffffffffffff1690602001909291908035906020019092919080359060200190929190505050610de4565b6040518082815260200191505060405180910390f35b3480156104e557600080fd5b506104ee61108c565b604051808263ffffffff16815260200191505060405180910390f35b34801561051657600080fd5b5061058e6004803603602081101561052d57600080fd5b810190808035906020019064010000000081111561054a57600080fd5b82018360208201111561055c57600080fd5b8035906020019184602083028401116401000000008311171561057e57600080fd5b90919293919293905050506110a2565b6040518080602001828103825283818151815260200191508051906020019060200280838360005b838110156105d15780820151818401526020810190506105b6565b505050509050019250505060405180910390f35b610611600480360360208110156105fb57600080fd5b8101908080359060200190929190505050611153565b005b34801561061f57600080fd5b506106286112de565b6040518082815260200191505060405180910390f35b34801561064a57600080fd5b506106776004803603602081101561066157600080fd5b8101908080359060200190929190505050611311565b6040518082815260200191505060405180910390f35b34801561069957600080fd5b506106a2611329565b604051808263ffffffff16815260200191505060405180910390f35b3480156106ca57600080fd5b506106f7600480360360208110156106e157600080fd5b810190808035906020019092919050505061132e565b60405180821515815260200191505060405180910390f35b34801561071b57600080fd5b506107486004803603602081101561073257600080fd5b8101908080359060200190929190505050611358565b6040518082815260200191505060405180910390f35b34801561076a57600080fd5b50610773611a4a565b6040518082815260200191505060405180910390f35b34801561079557600080fd5b5061079e611a6e565b604051808273ffffffffffffffffffffffffffffffffffffffff16815260200191505060405180910390f35b3480156107d657600080fd5b50610803600480360360208110156107ed57600080fd5b8101908080359060200190929190505050611a92565b6040518082815260200191505060405180910390f35b34801561082557600080fd5b5061082e611aaa565b604051808263ffffffff16815260200191505060405180910390f35b60066020528060005260406000206000915054906101000a900460ff1681565b7f000000000000000000000000000000000000000000000000000000000000000081565b7f30644e72e131a029b85045b68181585d2833e84879b9709143e1f593f000000181565b60008054906101000a900463ffffffff1681565b6002600454141561093f576040517f08c379a000000000000000000000000000000000000000000000000000000000815260040180806020018281038252601f8152602001807f5265656e7472616e637947756172643a207265656e7472616e742063616c6c0081525060200191505060405180910390fd5b60026004819055506005548211156109bf576040517f08c379a000000000000000000000000000000000000000000000000000000000815260040180806020018281038252601a8152602001807f4665652065786365656473207472616e736665722076616c756500000000000081525060200191505060405180910390fd5b6006600086815260200190815260200160002060009054906101000a900460ff1615610a53576040517f08c379a000000000000000000000000000000000000000000000000000000000815260040180806020018281038252601f8152602001807f546865206e6f746520686173206265656e20616c7265616479207370656e740081525060200191505060405180910390fd5b610a5c86610d22565b610ace576040517f08c379a000000000000000000000000000000000000000000000000000000000815260040180806020018281038252601c8152602001807f43616e6e6f742066696e6420796f7572206d65726b6c6520726f6f740000000081525060200191505060405180910390fd5b7f000000000000000000000000000000000000000000000000000000000000000073ffffffffffffffffffffffffffffffffffffffff16631e8e1e138a8a8a6040518463ffffffff1660e01b81526004018080602001806020018381038352868682818152602001925080828437600081840152601f19601f820116905080830192505050838103825284818151815260200191508051906020019060200280838360005b83811015610b8e578082015181840152602081019050610b73565b5050505090500195505050505050602060405180830381600087803b158015610bb657600080fd5b505af1158015610bca573d6000803e3d6000fd5b505050506040513d6020811015610be057600080fd5b8101908080519060200190929190505050610c63576040517f08c379a00000000000000000000000000000000000000000000000000000000081526004018080602001828103825260168152602001807f496e76616c69642077697468647261772070726f6f660000000000000000000081525060200191505060405180910390fd5b60016006600087815260200190815260200160002060006101000a81548160ff021916908315150217905550610c9b84848484611ac0565b8273ffffffffffffffffffffffffffffffffffffffff167fe9e508bad6d4c3227e881ca19068f099da81b5164dd6d62b2eaf1e8bc6c34931858785604051808473ffffffffffffffffffffffffffffffffffffffff168152602001838152602001828152602001935050505060405180910390a26001600481905550505050505050505050565b60008060001b821415610d385760009050610db9565b6000600360009054906101000a900463ffffffff16905060008190505b600260008263ffffffff16815260200190815260200160002054841415610d8157600192505050610db9565b60008163ffffffff161415610d9557601e90505b8080600190039150508163ffffffff168163ffffffff161415610d55576000925050505b919050565b60076020528060005260406000206000915054906101000a900460ff1681565b60055481565b60007f30644e72e131a029b85045b68181585d2833e84879b9709143e1f593f00000018360001c10610e7e576040517f08c379a00000000000000000000000000000000000000000000000000000000081526004018080602001828103825260208152602001807f5f6c6566742073686f756c6420626520696e7369646520746865206669656c6481525060200191505060405180910390fd5b7f30644e72e131a029b85045b68181585d2833e84879b9709143e1f593f00000018260001c10610ef9576040517f08c379a0000000000000000000000000000000000000000000000000000000008152600401808060200182810382526021815260200180611fcf6021913960400191505060405180910390fd5b60008360001c905060008573ffffffffffffffffffffffffffffffffffffffff1663f47d33b583836040518363ffffffff1660e01b81526004018083815260200182815260200192505050604080518083038186803b158015610f5b57600080fd5b505afa158015610f6f573d6000803e3d6000fd5b505050506040513d6040811015610f8557600080fd5b81019080805190602001909291908051906020019092919050505080925081935050507f30644e72e131a029b85045b68181585d2833e84879b9709143e1f593f000000180610fd057fe5b8460001c830891508573ffffffffffffffffffffffffffffffffffffffff1663f47d33b583836040518363ffffffff1660e01b81526004018083815260200182815260200192505050604080518083038186803b15801561103057600080fd5b505afa158015611044573d6000803e3d6000fd5b505050506040513d604081101561105a57600080fd5b81019080805190602001909291908051906020019092919050505080925081935050508160001b925050509392505050565b600360009054906101000a900463ffffffff1681565b60608282905067ffffffffffffffff811180156110be57600080fd5b506040519080825280602002602001820160405280156110ed5781602001602082028036833780820191505090505b50905060005b8383905081101561114c5761111984848381811061110d57fe5b9050602002013561132e565b1561113f57600182828151811061112c57fe5b6020026020010190151590811515815250505b80806001019150506110f3565b5092915050565b600260045414156111cc576040517f08c379a000000000000000000000000000000000000000000000000000000000815260040180806020018281038252601f8152602001807f5265656e7472616e637947756172643a207265656e7472616e742063616c6c0081525060200191505060405180910390fd5b60026004819055506007600082815260200190815260200160002060009054906101000a900460ff161561124b576040517f08c379a00000000000000000000000000000000000000000000000000000000081526004018080602001828103825260218152602001806120246021913960400191505060405180910390fd5b600061125682611d05565b905060016007600084815260200190815260200160002060006101000a81548160ff02191690831515021790555061128c611f3a565b817fa945e51eec50ab98c161376f0db4cf2aeba3ec92755fe2fcd388bdbbb80ff1968242604051808363ffffffff1681526020018281526020019250505060405180910390a250600160048190555050565b600060026000600360009054906101000a900463ffffffff1663ffffffff16815260200190815260200160002054905090565b60026020528060005260406000206000915090505481565b601e81565b60006006600083815260200190815260200160002060009054906101000a900460ff169050919050565b60008082141561138d577f2fe54c60d3acabf3343a35b6eba15db4821b340f76e741e2249685ed4899af6c60001b9050611a45565b60018214156113c1577f256a6135777eee2fd26f54b8b7037a25439d5235caee224154186d2b8a52e31d60001b9050611a45565b60028214156113f5577f1151949895e82ab19924de92c40a3d6f7bcb60d92b00504b8199613683f0c20060001b9050611a45565b6003821415611429577f20121ee811489ff8d61f09fb89e313f14959a0f28bb428a20dba6b0b068b3bdb60001b9050611a45565b600482141561145d577f0a89ca6ffa14cc462cfedb842c30ed221a50a3d6bf022a6a57dc82ab24c157c960001b9050611a45565b6005821415611491577f24ca05c2b5cd42e890d6be94c68d0689f4f21c9cec9c0f13fe41d566dfb5495960001b9050611a45565b60068214156114c5577f1ccb97c932565a92c60156bdba2d08f3bf1377464e025cee765679e604a7315c60001b9050611a45565b60078214156114f9577f19156fbd7d1a8bf5cba8909367de1b624534ebab4f0f79e003bccdd1b182bdb460001b9050611a45565b600882141561152d577f261af8c1f0912e465744641409f622d466c3920ac6e5ff37e36604cb11dfff8060001b9050611a45565b6009821415611560577e58459724ff6ca5a1652fcbc3e82b93895cf08e975b19beab3f54c217d1c00760001b9050611a45565b600a821415611594577f1f04ef20dee48d39984d8eabe768a70eafa6310ad20849d4573c3c40c2ad1e3060001b9050611a45565b600b8214156115c8577f1bea3dec5dab51567ce7e200a30f7ba6d4276aeaa53e2686f962a46c66d511e560001b9050611a45565b600c8214156115fc577f0ee0f941e2da4b9e31c3ca97a40d8fa9ce68d97c084177071b3cb46cd3372f0f60001b9050611a45565b600d821415611630577f1ca9503e8935884501bbaf20be14eb4c46b89772c97b96e3b2ebf3a36a948bbd60001b9050611a45565b600e821415611664577f133a80e30697cd55d8f7d4b0965b7be24057ba5dc3da898ee2187232446cb10860001b9050611a45565b600f821415611698577f13e6d8fc88839ed76e182c2a779af5b2c0da9dd18c90427a644f7e148a6253b660001b9050611a45565b60108214156116cc577f1eb16b057a477f4bc8f572ea6bee39561098f78f15bfb3699dcbb7bd8db6185460001b9050611a45565b6011821415611700577f0da2cb16a1ceaabf1c16b838f7a9e3f2a3a3088d9e0a6debaa748114620696ea60001b9050611a45565b6012821415611734577f24a3b3d822420b14b5d8cb6c28a574f01e98ea9e940551d2ebd75cee12649f9d60001b9050611a45565b6013821415611768577f198622acbd783d1b0d9064105b1fc8e4d8889de95c4c519b3f635809fe6afc0560001b9050611a45565b601482141561179c577f29d7ed391256ccc3ea596c86e933b89ff339d25ea8ddced975ae2fe30b5296d460001b9050611a45565b60158214156117d0577f19be59f2f0413ce78c0c3703a3a5451b1d7f39629fa33abd11548a76065b296760001b9050611a45565b6016821415611804577f1ff3f61797e538b70e619310d33f2a063e7eb59104e112e95738da1254dc345360001b9050611a45565b6017821415611838577f10c16ae9959cf8358980d9dd9616e48228737310a10e2b6b731c1a548f036c4860001b9050611a45565b601882141561186c577f0ba433a63174a90ac20992e75e3095496812b652685b5e1a2eae0b1bf4e8fcd160001b9050611a45565b60198214156118a0577f019ddb9df2bc98d987d0dfeca9d2b643deafab8f7036562e627c3667266a044c60001b9050611a45565b601a8214156118d4577f2d3c88b23175c5a5565db928414c66d1912b11acf974b2e644caaac04739ce9960001b9050611a45565b601b821415611908577f2eab55f6ae4e66e32c5189eed5c470840863445760f5ed7e7b69b2a62600f35460001b9050611a45565b601c82141561193b577e2df37a2642621802383cf952bf4dd1f32e05433beeb1fd41031fb7eace979d60001b9050611a45565b601d82141561196f577f104aeb41435db66c3e62feccc1d6f5d98d0a0ed75d1374db457cf462e3a1f42760001b9050611a45565b601e8214156119a3577f1f3c6fd858e9a7d4b0d1f38e256a09d81d5a5e3c963987e2d4b814cfab7c6ebb60001b9050611a45565b601f8214156119d7577f2c7a07d20dff79d01fecedc1134284a8d08436606c93693b67e333f671bf69cc60001b9050611a45565b6040517f08c379a00000000000000000000000000000000000000000000000000000000081526004018080602001828103825260138152602001807f496e646578206f7574206f6620626f756e64730000000000000000000000000081525060200191505060405180910390fd5b919050565b7f2fe54c60d3acabf3343a35b6eba15db4821b340f76e741e2249685ed4899af6c81565b7f000000000000000000000000000000000000000000000000000000000000000081565b60016020528060005260406000206000915090505481565b600360049054906101000a900463ffffffff1681565b60003414611b19576040517f08c379a00000000000000000000000000000000000000000000000000000000081526004018080602001828103825260358152602001806120bd6035913960400191505060405180910390fd5b60008114611b72576040517f08c379a0000000000000000000000000000000000000000000000000000000008152600401808060200182810382526034815260200180611ff06034913960400191505060405180910390fd5b60008473ffffffffffffffffffffffffffffffffffffffff16836005540360405180600001905060006040518083038185875af1925050503d8060008114611bd6576040519150601f19603f3d011682016040523d82523d6000602084013e611bdb565b606091505b5050905080611c35576040517f08c379a00000000000000000000000000000000000000000000000000000000081526004018080602001828103825260258152602001806120456025913960400191505060405180910390fd5b6000831115611cfe578373ffffffffffffffffffffffffffffffffffffffff168360405180600001905060006040518083038185875af1925050503d8060008114611c9c576040519150601f19603f3d011682016040523d82523d6000602084013e611ca1565b606091505b50508091505080611cfd576040517f08c379a000000000000000000000000000000000000000000000000000000000815260040180806020018281038252602381526020018061206a6023913960400191505060405180910390fd5b5b5050505050565b600080600360049054906101000a900463ffffffff16905060008054906101000a900463ffffffff1663ffffffff16600263ffffffff160a63ffffffff168163ffffffff161415611da1576040517f08c379a000000000000000000000000000000000000000000000000000000000815260040180806020018281038252603081526020018061208d6030913960400191505060405180910390fd5b6000819050600084905060008060005b60008054906101000a900463ffffffff1663ffffffff168163ffffffff161015611e9857600060028663ffffffff1681611de757fe5b0663ffffffff161415611e2b57839250611e068163ffffffff16611358565b915083600160008363ffffffff16815260200190815260200160002081905550611e4b565b600160008263ffffffff1681526020019081526020016000205492508391505b611e767f00000000000000000000000000000000000000000000000000000000000000008484610de4565b935060028563ffffffff1681611e8857fe5b0494508080600101915050611db1565b506000601e63ffffffff166001600360009054906101000a900463ffffffff160163ffffffff1681611ec657fe5b06905080600360006101000a81548163ffffffff021916908363ffffffff16021790555083600260008363ffffffff1681526020019081526020016000208190555060018601600360046101000a81548163ffffffff021916908363ffffffff160217905550859650505050505050919050565b6005543414611f94576040517f08c379a0000000000000000000000000000000000000000000000000000000008152600401808060200182810382526038815260200180611f976038913960400191505060405180910390fd5b56fe506c656173652073656e6420606d697844656e6f6d696e6174696f6e602045544820616c6f6e672077697468207472616e73616374696f6e5f72696768742073686f756c6420626520696e7369646520746865206669656c64526566756e642076616c756520697320737570706f73656420746f206265207a65726f20666f722045544820696e7374616e636554686520636f6d6d69746d656e7420686173206265656e207375626d69747465647061796d656e7420746f205f726563697069656e7420646964206e6f7420676f20746872757061796d656e7420746f205f72656c6179657220646964206e6f7420676f20746872754d65726b6c6520747265652069732066756c6c2e204e6f206d6f7265206c65617665732063616e2062652061646465644d6573736167652076616c756520697320737570706f73656420746f206265207a65726f20666f722045544820696e7374616e6365a2646970667358221220bb1bfe82361d7c9c29c81bfa8d03f4a792516478be316eb4aff89f285b7179fb64736f6c6343000700003364656e6f6d696e6174696f6e2073686f756c642062652067726561746572207468616e20305f6c6576656c732073686f756c642062652067726561746572207468616e207a65726f",
  "linkReferences": {},
  "deployedLinkReferences": {}
}