{
  "_format": "hh-sol-artifact-1",
  "contractName": "Verifier",
  "sourceName": "contracts/Verifier.sol",
  "abi": [
    {
      "inputs": [
        {
          "internalType": "bytes",
          "name": "proof",
          "type": "bytes"
        },
        {
          "internalType": "uint256[]",
          "name": "pubSignals",
          "type": "uint256[]"
        }
      ],
      "name": "verifyProof",
      "outputs": [
        {
          "internalType": "bool",
          "name": "",
          "type": "bool"
        }
      ],
      "stateMutability": "view",
      "type": "function"
    }
  ],
  "bytecode": "0x608060405234801561001057600080fd5b506157ca80620000216000396000f3fe608060405234801561001057600080fd5b506004361061002b5760003560e01c80631e8e1e1314610030575b600080fd5b61017d6004803603604081101561004657600080fd5b810190808035906020019064010000000081111561006357600080fd5b82018360208201111561007557600080fd5b8035906020019184600183028401116401000000008311171561009757600080fd5b91908080601f016020809104026020016040519081016040528093929190818152602001838380828437600081840152601f19601f820116905080830192505050505050509192919290803590602001906401000000008111156100fa57600080fd5b82018360208201111561010c57600080fd5b8035906020019184602083028401116401000000008311171561012e57600080fd5b919080806020026020016040519081016040528093929190818152602001838360200280828437600081840152601f19601f820116905080830192505050505050509192919290505050610195565b60405180821515815260200191505060405180910390f35b6000615729565b600080600184846000805b82156101d157828405915084820286039050849550809450828202840390508293508092506101a7565b60018411156101df57600080fd5b60008612156101ee5788860195505b85965050505050505092915050565b60405181602084028301815160208301925060005b82841015610255578185527f30644e72e131a029b85045b68181585d2833e84879b9709143e1f593f0000001845183099150602085019450602084019350610212565b61027f7f30644e72e131a029b85045b68181585d2833e84879b9709143e1f593f00000018361019c565b91506020850394506020840393508592505b828411156102fb577f30644e72e131a029b85045b68181585d2833e84879b9709143e1f593f00000018551830990507f30644e72e131a029b85045b68181585d2833e84879b9709143e1f593f0000001845183099150808452602085039450602084039350610291565b81845250505050505050565b7f30644e72e131a029b85045b68181585d2833e84879b9709143e1f593f00000018110610338576000805260206000f35b50565b61032081511461034f576000805260206000f35b61035d610260820151610307565b61036b610280820151610307565b6103796102a0820151610307565b6103876102c0820151610307565b6103956102e0820151610307565b6103a3610300820151610307565b6103b1610320820151610307565b50565b60008060208501516107e085015260408501516108008501526060850151610820850152608085015161084085015260a085015161086085015260c085015161088085015260e08501516108a08501526101008501516108c08501526101208501516108e08501526101408501516109008501526101608501516109208501526101808501516109408501526101a08501516109608501526101c08501516109808501526101e08501516109a08501526102008501516109c08501526102208501516109e0850152610240850151610a00850152610260850151610a20850152610280850151610a408501526102a0850151610a608501526102c0850151610a808501526102e0850151610aa0850152610300850151610ac0850152610320850151610ae0850152610340850151610b00850152610360850151610b20850152610380850151610b408501526103a0850151610b608501526103c0850151610b808501526103e0850151610ba0850152610400850151610bc0850152610420850151610be0850152610440850151610c00850152610460850151610c20850152610480850151610c408501526104a0850151610c608501526104c0850151610c808501526104e0850151610ca0850152610500850151610cc0850152610520850151610ce0850152610540850151610d008501526020830151610d2085015260208001830151610d408501526040602001830151610d608501526060602001830151610d808501526080602001830151610da085015260a0602001830151610dc08501527f30644e72e131a029b85045b68181585d2833e84879b9709143e1f593f00000016106006107e08601200690508060208501527f30644e72e131a029b85045b68181585d2833e84879b9709143e1f593f00000016020808601200660408501527f30644e72e131a029b85045b68181585d2833e84879b9709143e1f593f0000001604060e08501200660008501527f30644e72e131a029b85045b68181585d2833e84879b9709143e1f593f000000160c06101208501200691508160608501527f30644e72e131a029b85045b68181585d2833e84879b9709143e1f593f000000182820960a08501527f30644e72e131a029b85045b68181585d2833e84879b9709143e1f593f000000182830991507f30644e72e131a029b85045b68181585d2833e84879b9709143e1f593f000000182830991507f30644e72e131a029b85045b68181585d2833e84879b9709143e1f593f000000182830991507f30644e72e131a029b85045b68181585d2833e84879b9709143e1f593f000000182830991507f30644e72e131a029b85045b68181585d2833e84879b9709143e1f593f000000182830991507f30644e72e131a029b85045b68181585d2833e84879b9709143e1f593f000000182830991507f30644e72e131a029b85045b68181585d2833e84879b9709143e1f593f000000182830991507f30644e72e131a029b85045b68181585d2833e84879b9709143e1f593f000000182830991507f30644e72e131a029b85045b68181585d2833e84879b9709143e1f593f000000182830991507f30644e72e131a029b85045b68181585d2833e84879b9709143e1f593f000000182830991507f30644e72e131a029b85045b68181585d2833e84879b9709143e1f593f000000182830991507f30644e72e131a029b85045b68181585d2833e84879b9709143e1f593f000000182830991507f30644e72e131a029b85045b68181585d2833e84879b9709143e1f593f000000182830991507f30644e72e131a029b85045b68181585d2833e84879b9709143e1f593f000000182830991507f30644e72e131a029b85045b68181585d2833e84879b9709143e1f593f000000182830991507f30644e72e131a029b85045b68181585d2833e84879b9709143e1f593f000000182830991508160808501527f30644e72e131a029b85045b68181585d2833e84879b9709143e1f593f000000180600184030106915081610260850152816102808501527f30644e72e131a029b85045b68181585d2833e84879b9709143e1f593f000000160e0610260850120068060c08601527f30644e72e131a029b85045b68181585d2833e84879b9709143e1f593f000000181820992508260e08601527f30644e72e131a029b85045b68181585d2833e84879b9709143e1f593f00000018184099250826101008601527f30644e72e131a029b85045b68181585d2833e84879b9709143e1f593f00000018184099250826101208601527f30644e72e131a029b85045b68181585d2833e84879b9709143e1f593f00000018184099250826101408601527f30644e72e131a029b85045b68181585d2833e84879b9709143e1f593f00000018184099250826101608601527f30644e72e131a029b85045b68181585d2833e84879b9709143e1f593f000000160806101e086012006610180860152505050505050565b60017f30644e72e131a029b85045b68181585d2833e84879b9709143e1f593f0000001807f30644e72e131a029b85045b68181585d2833e84879b9709143e1f593f000000183606086015103010662010000096102a08301527f30644e72e131a029b85045b68181585d2833e84879b9709143e1f593f00000017eeeb2cb5981ed45649abebde081dcff16c8601de4347e7dd1628ba2daac43b7820990507f30644e72e131a029b85045b68181585d2833e84879b9709143e1f593f0000001807f30644e72e131a029b85045b68181585d2833e84879b9709143e1f593f000000183606086015103010662010000096102c08301527f30644e72e131a029b85045b68181585d2833e84879b9709143e1f593f00000017eeeb2cb5981ed45649abebde081dcff16c8601de4347e7dd1628ba2daac43b7820990507f30644e72e131a029b85045b68181585d2833e84879b9709143e1f593f0000001807f30644e72e131a029b85045b68181585d2833e84879b9709143e1f593f000000183606086015103010662010000096102e08301527f30644e72e131a029b85045b68181585d2833e84879b9709143e1f593f00000017eeeb2cb5981ed45649abebde081dcff16c8601de4347e7dd1628ba2daac43b7820990507f30644e72e131a029b85045b68181585d2833e84879b9709143e1f593f0000001807f30644e72e131a029b85045b68181585d2833e84879b9709143e1f593f000000183606086015103010662010000096103008301527f30644e72e131a029b85045b68181585d2833e84879b9709143e1f593f00000017eeeb2cb5981ed45649abebde081dcff16c8601de4347e7dd1628ba2daac43b7820990507f30644e72e131a029b85045b68181585d2833e84879b9709143e1f593f0000001807f30644e72e131a029b85045b68181585d2833e84879b9709143e1f593f000000183606086015103010662010000096103208301527f30644e72e131a029b85045b68181585d2833e84879b9709143e1f593f00000017eeeb2cb5981ed45649abebde081dcff16c8601de4347e7dd1628ba2daac43b7820990507f30644e72e131a029b85045b68181585d2833e84879b9709143e1f593f0000001807f30644e72e131a029b85045b68181585d2833e84879b9709143e1f593f000000183606086015103010662010000096103408301527f30644e72e131a029b85045b68181585d2833e84879b9709143e1f593f00000017eeeb2cb5981ed45649abebde081dcff16c8601de4347e7dd1628ba2daac43b7820990507f30644e72e131a029b85045b68181585d2833e84879b9709143e1f593f0000001807f30644e72e131a029b85045b68181585d2833e84879b9709143e1f593f000000183606086015103010662010000096103608301527f30644e72e131a029b85045b68181585d2833e84879b9709143e1f593f00000017eeeb2cb5981ed45649abebde081dcff16c8601de4347e7dd1628ba2daac43b7820990507f30644e72e131a029b85045b68181585d2833e84879b9709143e1f593f0000001807f30644e72e131a029b85045b68181585d2833e84879b9709143e1f593f000000183606086015103010662010000096103808301527f30644e72e131a029b85045b68181585d2833e84879b9709143e1f593f00000017eeeb2cb5981ed45649abebde081dcff16c8601de4347e7dd1628ba2daac43b7820990507f30644e72e131a029b85045b68181585d2833e84879b9709143e1f593f0000001807f30644e72e131a029b85045b68181585d2833e84879b9709143e1f593f000000183606086015103010662010000096103a08301527f30644e72e131a029b85045b68181585d2833e84879b9709143e1f593f00000017eeeb2cb5981ed45649abebde081dcff16c8601de4347e7dd1628ba2daac43b7820990507f30644e72e131a029b85045b68181585d2833e84879b9709143e1f593f0000001807f30644e72e131a029b85045b68181585d2833e84879b9709143e1f593f000000183606086015103010662010000096103c08301527f30644e72e131a029b85045b68181585d2833e84879b9709143e1f593f00000017eeeb2cb5981ed45649abebde081dcff16c8601de4347e7dd1628ba2daac43b7820990507f30644e72e131a029b85045b68181585d2833e84879b9709143e1f593f0000001807f30644e72e131a029b85045b68181585d2833e84879b9709143e1f593f000000183606086015103010662010000096103e08301527f30644e72e131a029b85045b68181585d2833e84879b9709143e1f593f00000017eeeb2cb5981ed45649abebde081dcff16c8601de4347e7dd1628ba2daac43b7820990507f30644e72e131a029b85045b68181585d2833e84879b9709143e1f593f0000001807f30644e72e131a029b85045b68181585d2833e84879b9709143e1f593f000000183606086015103010662010000096104008301527f30644e72e131a029b85045b68181585d2833e84879b9709143e1f593f00000017eeeb2cb5981ed45649abebde081dcff16c8601de4347e7dd1628ba2daac43b7820990507f30644e72e131a029b85045b68181585d2833e84879b9709143e1f593f0000001807f30644e72e131a029b85045b68181585d2833e84879b9709143e1f593f000000183606086015103010662010000096104208301527f30644e72e131a029b85045b68181585d2833e84879b9709143e1f593f00000017eeeb2cb5981ed45649abebde081dcff16c8601de4347e7dd1628ba2daac43b7820990507f30644e72e131a029b85045b68181585d2833e84879b9709143e1f593f0000001807f30644e72e131a029b85045b68181585d2833e84879b9709143e1f593f000000183606086015103010662010000096104408301527f30644e72e131a029b85045b68181585d2833e84879b9709143e1f593f00000017eeeb2cb5981ed45649abebde081dcff16c8601de4347e7dd1628ba2daac43b7820990507f30644e72e131a029b85045b68181585d2833e84879b9709143e1f593f0000001807f30644e72e131a029b85045b68181585d2833e84879b9709143e1f593f000000183606086015103010662010000096104608301527f30644e72e131a029b85045b68181585d2833e84879b9709143e1f593f00000017eeeb2cb5981ed45649abebde081dcff16c8601de4347e7dd1628ba2daac43b7820990507f30644e72e131a029b85045b68181585d2833e84879b9709143e1f593f0000001807f30644e72e131a029b85045b68181585d2833e84879b9709143e1f593f000000183606086015103010662010000096104808301527f30644e72e131a029b85045b68181585d2833e84879b9709143e1f593f00000017eeeb2cb5981ed45649abebde081dcff16c8601de4347e7dd1628ba2daac43b7820990507f30644e72e131a029b85045b68181585d2833e84879b9709143e1f593f0000001807f30644e72e131a029b85045b68181585d2833e84879b9709143e1f593f000000183606086015103010662010000096104a08301527f30644e72e131a029b85045b68181585d2833e84879b9709143e1f593f00000017eeeb2cb5981ed45649abebde081dcff16c8601de4347e7dd1628ba2daac43b7820990507f30644e72e131a029b85045b68181585d2833e84879b9709143e1f593f0000001807f30644e72e131a029b85045b68181585d2833e84879b9709143e1f593f000000183606086015103010662010000096104c08301527f30644e72e131a029b85045b68181585d2833e84879b9709143e1f593f00000017eeeb2cb5981ed45649abebde081dcff16c8601de4347e7dd1628ba2daac43b7820990507f30644e72e131a029b85045b68181585d2833e84879b9709143e1f593f0000001807f30644e72e131a029b85045b68181585d2833e84879b9709143e1f593f000000183606086015103010662010000096104e08301527f30644e72e131a029b85045b68181585d2833e84879b9709143e1f593f00000017eeeb2cb5981ed45649abebde081dcff16c8601de4347e7dd1628ba2daac43b7820990507f30644e72e131a029b85045b68181585d2833e84879b9709143e1f593f0000001807f30644e72e131a029b85045b68181585d2833e84879b9709143e1f593f000000183606086015103010662010000096105008301527f30644e72e131a029b85045b68181585d2833e84879b9709143e1f593f00000017eeeb2cb5981ed45649abebde081dcff16c8601de4347e7dd1628ba2daac43b7820990507f30644e72e131a029b85045b68181585d2833e84879b9709143e1f593f0000001807f30644e72e131a029b85045b68181585d2833e84879b9709143e1f593f000000183606086015103010662010000096105208301527f30644e72e131a029b85045b68181585d2833e84879b9709143e1f593f00000017eeeb2cb5981ed45649abebde081dcff16c8601de4347e7dd1628ba2daac43b7820990507f30644e72e131a029b85045b68181585d2833e84879b9709143e1f593f0000001807f30644e72e131a029b85045b68181585d2833e84879b9709143e1f593f000000183606086015103010662010000096105408301527f30644e72e131a029b85045b68181585d2833e84879b9709143e1f593f00000017eeeb2cb5981ed45649abebde081dcff16c8601de4347e7dd1628ba2daac43b7820990507f30644e72e131a029b85045b68181585d2833e84879b9709143e1f593f0000001807f30644e72e131a029b85045b68181585d2833e84879b9709143e1f593f000000183606086015103010662010000096105608301527f30644e72e131a029b85045b68181585d2833e84879b9709143e1f593f00000017eeeb2cb5981ed45649abebde081dcff16c8601de4347e7dd1628ba2daac43b7820990507f30644e72e131a029b85045b68181585d2833e84879b9709143e1f593f0000001807f30644e72e131a029b85045b68181585d2833e84879b9709143e1f593f000000183606086015103010662010000096105808301527f30644e72e131a029b85045b68181585d2833e84879b9709143e1f593f00000017eeeb2cb5981ed45649abebde081dcff16c8601de4347e7dd1628ba2daac43b7820990507f30644e72e131a029b85045b68181585d2833e84879b9709143e1f593f0000001807f30644e72e131a029b85045b68181585d2833e84879b9709143e1f593f000000183606086015103010662010000096105a08301527f30644e72e131a029b85045b68181585d2833e84879b9709143e1f593f00000017eeeb2cb5981ed45649abebde081dcff16c8601de4347e7dd1628ba2daac43b7820990507f30644e72e131a029b85045b68181585d2833e84879b9709143e1f593f0000001807f30644e72e131a029b85045b68181585d2833e84879b9709143e1f593f000000183606086015103010662010000096105c08301527f30644e72e131a029b85045b68181585d2833e84879b9709143e1f593f00000017eeeb2cb5981ed45649abebde081dcff16c8601de4347e7dd1628ba2daac43b7820990507f30644e72e131a029b85045b68181585d2833e84879b9709143e1f593f0000001807f30644e72e131a029b85045b68181585d2833e84879b9709143e1f593f000000183606086015103010662010000096105e08301527f30644e72e131a029b85045b68181585d2833e84879b9709143e1f593f00000017eeeb2cb5981ed45649abebde081dcff16c8601de4347e7dd1628ba2daac43b7820990507f30644e72e131a029b85045b68181585d2833e84879b9709143e1f593f0000001807f30644e72e131a029b85045b68181585d2833e84879b9709143e1f593f000000183606086015103010662010000096106008301527f30644e72e131a029b85045b68181585d2833e84879b9709143e1f593f00000017eeeb2cb5981ed45649abebde081dcff16c8601de4347e7dd1628ba2daac43b7820990507f30644e72e131a029b85045b68181585d2833e84879b9709143e1f593f0000001807f30644e72e131a029b85045b68181585d2833e84879b9709143e1f593f000000183606086015103010662010000096106208301527f30644e72e131a029b85045b68181585d2833e84879b9709143e1f593f00000017eeeb2cb5981ed45649abebde081dcff16c8601de4347e7dd1628ba2daac43b7820990507f30644e72e131a029b85045b68181585d2833e84879b9709143e1f593f0000001807f30644e72e131a029b85045b68181585d2833e84879b9709143e1f593f000000183606086015103010662010000096106408301527f30644e72e131a029b85045b68181585d2833e84879b9709143e1f593f00000017eeeb2cb5981ed45649abebde081dcff16c8601de4347e7dd1628ba2daac43b7820990507f30644e72e131a029b85045b68181585d2833e84879b9709143e1f593f0000001807f30644e72e131a029b85045b68181585d2833e84879b9709143e1f593f000000183606086015103010662010000096106608301527f30644e72e131a029b85045b68181585d2833e84879b9709143e1f593f00000017eeeb2cb5981ed45649abebde081dcff16c8601de4347e7dd1628ba2daac43b7820990507f30644e72e131a029b85045b68181585d2833e84879b9709143e1f593f0000001807f30644e72e131a029b85045b68181585d2833e84879b9709143e1f593f000000183606086015103010662010000096106808301527f30644e72e131a029b85045b68181585d2833e84879b9709143e1f593f00000017eeeb2cb5981ed45649abebde081dcff16c8601de4347e7dd1628ba2daac43b7820990507f30644e72e131a029b85045b68181585d2833e84879b9709143e1f593f0000001807f30644e72e131a029b85045b68181585d2833e84879b9709143e1f593f000000183606086015103010662010000096106a08301527f30644e72e131a029b85045b68181585d2833e84879b9709143e1f593f00000017eeeb2cb5981ed45649abebde081dcff16c8601de4347e7dd1628ba2daac43b7820990507f30644e72e131a029b85045b68181585d2833e84879b9709143e1f593f0000001807f30644e72e131a029b85045b68181585d2833e84879b9709143e1f593f000000183606086015103010662010000096106c08301527f30644e72e131a029b85045b68181585d2833e84879b9709143e1f593f00000017eeeb2cb5981ed45649abebde081dcff16c8601de4347e7dd1628ba2daac43b7820990507f30644e72e131a029b85045b68181585d2833e84879b9709143e1f593f0000001807f30644e72e131a029b85045b68181585d2833e84879b9709143e1f593f000000183606086015103010662010000096106e08301527f30644e72e131a029b85045b68181585d2833e84879b9709143e1f593f00000017eeeb2cb5981ed45649abebde081dcff16c8601de4347e7dd1628ba2daac43b7820990507f30644e72e131a029b85045b68181585d2833e84879b9709143e1f593f0000001807f30644e72e131a029b85045b68181585d2833e84879b9709143e1f593f000000183606086015103010662010000096107008301527f30644e72e131a029b85045b68181585d2833e84879b9709143e1f593f00000017eeeb2cb5981ed45649abebde081dcff16c8601de4347e7dd1628ba2daac43b7820990507f30644e72e131a029b85045b68181585d2833e84879b9709143e1f593f0000001807f30644e72e131a029b85045b68181585d2833e84879b9709143e1f593f000000183606086015103010662010000096107208301527f30644e72e131a029b85045b68181585d2833e84879b9709143e1f593f00000017eeeb2cb5981ed45649abebde081dcff16c8601de4347e7dd1628ba2daac43b7820990507f30644e72e131a029b85045b68181585d2833e84879b9709143e1f593f0000001807f30644e72e131a029b85045b68181585d2833e84879b9709143e1f593f000000183606086015103010662010000096107408301527f30644e72e131a029b85045b68181585d2833e84879b9709143e1f593f00000017eeeb2cb5981ed45649abebde081dcff16c8601de4347e7dd1628ba2daac43b7820990507f30644e72e131a029b85045b68181585d2833e84879b9709143e1f593f0000001807f30644e72e131a029b85045b68181585d2833e84879b9709143e1f593f000000183606086015103010662010000096107608301527f30644e72e131a029b85045b68181585d2833e84879b9709143e1f593f00000017eeeb2cb5981ed45649abebde081dcff16c8601de4347e7dd1628ba2daac43b7820990507f30644e72e131a029b85045b68181585d2833e84879b9709143e1f593f0000001807f30644e72e131a029b85045b68181585d2833e84879b9709143e1f593f000000183606086015103010662010000096107808301527f30644e72e131a029b85045b68181585d2833e84879b9709143e1f593f00000017eeeb2cb5981ed45649abebde081dcff16c8601de4347e7dd1628ba2daac43b7820990507f30644e72e131a029b85045b68181585d2833e84879b9709143e1f593f0000001807f30644e72e131a029b85045b68181585d2833e84879b9709143e1f593f000000183606086015103010662010000096107a08301527f30644e72e131a029b85045b68181585d2833e84879b9709143e1f593f00000017eeeb2cb5981ed45649abebde081dcff16c8601de4347e7dd1628ba2daac43b7820990507f30644e72e131a029b85045b68181585d2833e84879b9709143e1f593f0000001807f30644e72e131a029b85045b68181585d2833e84879b9709143e1f593f000000183606086015103010662010000096107c083015261242b602b61028084016101fd565b610260820151600191507f30644e72e131a029b85045b68181585d2833e84879b9709143e1f593f0000001816102a0850151096102a08401527f30644e72e131a029b85045b68181585d2833e84879b9709143e1f593f00000017eeeb2cb5981ed45649abebde081dcff16c8601de4347e7dd1628ba2daac43b7830991507f30644e72e131a029b85045b68181585d2833e84879b9709143e1f593f000000180826102c08601510983096102c08401527f30644e72e131a029b85045b68181585d2833e84879b9709143e1f593f00000017eeeb2cb5981ed45649abebde081dcff16c8601de4347e7dd1628ba2daac43b7830991507f30644e72e131a029b85045b68181585d2833e84879b9709143e1f593f000000180826102e08601510983096102e08401527f30644e72e131a029b85045b68181585d2833e84879b9709143e1f593f00000017eeeb2cb5981ed45649abebde081dcff16c8601de4347e7dd1628ba2daac43b7830991507f30644e72e131a029b85045b68181585d2833e84879b9709143e1f593f000000180826103008601510983096103008401527f30644e72e131a029b85045b68181585d2833e84879b9709143e1f593f00000017eeeb2cb5981ed45649abebde081dcff16c8601de4347e7dd1628ba2daac43b7830991507f30644e72e131a029b85045b68181585d2833e84879b9709143e1f593f000000180826103208601510983096103208401527f30644e72e131a029b85045b68181585d2833e84879b9709143e1f593f00000017eeeb2cb5981ed45649abebde081dcff16c8601de4347e7dd1628ba2daac43b7830991507f30644e72e131a029b85045b68181585d2833e84879b9709143e1f593f000000180826103408601510983096103408401527f30644e72e131a029b85045b68181585d2833e84879b9709143e1f593f00000017eeeb2cb5981ed45649abebde081dcff16c8601de4347e7dd1628ba2daac43b7830991507f30644e72e131a029b85045b68181585d2833e84879b9709143e1f593f000000180826103608601510983096103608401527f30644e72e131a029b85045b68181585d2833e84879b9709143e1f593f00000017eeeb2cb5981ed45649abebde081dcff16c8601de4347e7dd1628ba2daac43b7830991507f30644e72e131a029b85045b68181585d2833e84879b9709143e1f593f000000180826103808601510983096103808401527f30644e72e131a029b85045b68181585d2833e84879b9709143e1f593f00000017eeeb2cb5981ed45649abebde081dcff16c8601de4347e7dd1628ba2daac43b7830991507f30644e72e131a029b85045b68181585d2833e84879b9709143e1f593f000000180826103a08601510983096103a08401527f30644e72e131a029b85045b68181585d2833e84879b9709143e1f593f00000017eeeb2cb5981ed45649abebde081dcff16c8601de4347e7dd1628ba2daac43b7830991507f30644e72e131a029b85045b68181585d2833e84879b9709143e1f593f000000180826103c08601510983096103c08401527f30644e72e131a029b85045b68181585d2833e84879b9709143e1f593f00000017eeeb2cb5981ed45649abebde081dcff16c8601de4347e7dd1628ba2daac43b7830991507f30644e72e131a029b85045b68181585d2833e84879b9709143e1f593f000000180826103e08601510983096103e08401527f30644e72e131a029b85045b68181585d2833e84879b9709143e1f593f00000017eeeb2cb5981ed45649abebde081dcff16c8601de4347e7dd1628ba2daac43b7830991507f30644e72e131a029b85045b68181585d2833e84879b9709143e1f593f000000180826104008601510983096104008401527f30644e72e131a029b85045b68181585d2833e84879b9709143e1f593f00000017eeeb2cb5981ed45649abebde081dcff16c8601de4347e7dd1628ba2daac43b7830991507f30644e72e131a029b85045b68181585d2833e84879b9709143e1f593f000000180826104208601510983096104208401527f30644e72e131a029b85045b68181585d2833e84879b9709143e1f593f00000017eeeb2cb5981ed45649abebde081dcff16c8601de4347e7dd1628ba2daac43b7830991507f30644e72e131a029b85045b68181585d2833e84879b9709143e1f593f000000180826104408601510983096104408401527f30644e72e131a029b85045b68181585d2833e84879b9709143e1f593f00000017eeeb2cb5981ed45649abebde081dcff16c8601de4347e7dd1628ba2daac43b7830991507f30644e72e131a029b85045b68181585d2833e84879b9709143e1f593f000000180826104608601510983096104608401527f30644e72e131a029b85045b68181585d2833e84879b9709143e1f593f00000017eeeb2cb5981ed45649abebde081dcff16c8601de4347e7dd1628ba2daac43b7830991507f30644e72e131a029b85045b68181585d2833e84879b9709143e1f593f000000180826104808601510983096104808401527f30644e72e131a029b85045b68181585d2833e84879b9709143e1f593f00000017eeeb2cb5981ed45649abebde081dcff16c8601de4347e7dd1628ba2daac43b7830991507f30644e72e131a029b85045b68181585d2833e84879b9709143e1f593f000000180826104a08601510983096104a08401527f30644e72e131a029b85045b68181585d2833e84879b9709143e1f593f00000017eeeb2cb5981ed45649abebde081dcff16c8601de4347e7dd1628ba2daac43b7830991507f30644e72e131a029b85045b68181585d2833e84879b9709143e1f593f000000180826104c08601510983096104c08401527f30644e72e131a029b85045b68181585d2833e84879b9709143e1f593f00000017eeeb2cb5981ed45649abebde081dcff16c8601de4347e7dd1628ba2daac43b7830991507f30644e72e131a029b85045b68181585d2833e84879b9709143e1f593f000000180826104e08601510983096104e08401527f30644e72e131a029b85045b68181585d2833e84879b9709143e1f593f00000017eeeb2cb5981ed45649abebde081dcff16c8601de4347e7dd1628ba2daac43b7830991507f30644e72e131a029b85045b68181585d2833e84879b9709143e1f593f000000180826105008601510983096105008401527f30644e72e131a029b85045b68181585d2833e84879b9709143e1f593f00000017eeeb2cb5981ed45649abebde081dcff16c8601de4347e7dd1628ba2daac43b7830991507f30644e72e131a029b85045b68181585d2833e84879b9709143e1f593f000000180826105208601510983096105208401527f30644e72e131a029b85045b68181585d2833e84879b9709143e1f593f00000017eeeb2cb5981ed45649abebde081dcff16c8601de4347e7dd1628ba2daac43b7830991507f30644e72e131a029b85045b68181585d2833e84879b9709143e1f593f000000180826105408601510983096105408401527f30644e72e131a029b85045b68181585d2833e84879b9709143e1f593f00000017eeeb2cb5981ed45649abebde081dcff16c8601de4347e7dd1628ba2daac43b7830991507f30644e72e131a029b85045b68181585d2833e84879b9709143e1f593f000000180826105608601510983096105608401527f30644e72e131a029b85045b68181585d2833e84879b9709143e1f593f00000017eeeb2cb5981ed45649abebde081dcff16c8601de4347e7dd1628ba2daac43b7830991507f30644e72e131a029b85045b68181585d2833e84879b9709143e1f593f000000180826105808601510983096105808401527f30644e72e131a029b85045b68181585d2833e84879b9709143e1f593f00000017eeeb2cb5981ed45649abebde081dcff16c8601de4347e7dd1628ba2daac43b7830991507f30644e72e131a029b85045b68181585d2833e84879b9709143e1f593f000000180826105a08601510983096105a08401527f30644e72e131a029b85045b68181585d2833e84879b9709143e1f593f00000017eeeb2cb5981ed45649abebde081dcff16c8601de4347e7dd1628ba2daac43b7830991507f30644e72e131a029b85045b68181585d2833e84879b9709143e1f593f000000180826105c08601510983096105c08401527f30644e72e131a029b85045b68181585d2833e84879b9709143e1f593f00000017eeeb2cb5981ed45649abebde081dcff16c8601de4347e7dd1628ba2daac43b7830991507f30644e72e131a029b85045b68181585d2833e84879b9709143e1f593f000000180826105e08601510983096105e08401527f30644e72e131a029b85045b68181585d2833e84879b9709143e1f593f00000017eeeb2cb5981ed45649abebde081dcff16c8601de4347e7dd1628ba2daac43b7830991507f30644e72e131a029b85045b68181585d2833e84879b9709143e1f593f000000180826106008601510983096106008401527f30644e72e131a029b85045b68181585d2833e84879b9709143e1f593f00000017eeeb2cb5981ed45649abebde081dcff16c8601de4347e7dd1628ba2daac43b7830991507f30644e72e131a029b85045b68181585d2833e84879b9709143e1f593f000000180826106208601510983096106208401527f30644e72e131a029b85045b68181585d2833e84879b9709143e1f593f00000017eeeb2cb5981ed45649abebde081dcff16c8601de4347e7dd1628ba2daac43b7830991507f30644e72e131a029b85045b68181585d2833e84879b9709143e1f593f000000180826106408601510983096106408401527f30644e72e131a029b85045b68181585d2833e84879b9709143e1f593f00000017eeeb2cb5981ed45649abebde081dcff16c8601de4347e7dd1628ba2daac43b7830991507f30644e72e131a029b85045b68181585d2833e84879b9709143e1f593f000000180826106608601510983096106608401527f30644e72e131a029b85045b68181585d2833e84879b9709143e1f593f00000017eeeb2cb5981ed45649abebde081dcff16c8601de4347e7dd1628ba2daac43b7830991507f30644e72e131a029b85045b68181585d2833e84879b9709143e1f593f000000180826106808601510983096106808401527f30644e72e131a029b85045b68181585d2833e84879b9709143e1f593f00000017eeeb2cb5981ed45649abebde081dcff16c8601de4347e7dd1628ba2daac43b7830991507f30644e72e131a029b85045b68181585d2833e84879b9709143e1f593f000000180826106a08601510983096106a08401527f30644e72e131a029b85045b68181585d2833e84879b9709143e1f593f00000017eeeb2cb5981ed45649abebde081dcff16c8601de4347e7dd1628ba2daac43b7830991507f30644e72e131a029b85045b68181585d2833e84879b9709143e1f593f000000180826106c08601510983096106c08401527f30644e72e131a029b85045b68181585d2833e84879b9709143e1f593f00000017eeeb2cb5981ed45649abebde081dcff16c8601de4347e7dd1628ba2daac43b7830991507f30644e72e131a029b85045b68181585d2833e84879b9709143e1f593f000000180826106e08601510983096106e08401527f30644e72e131a029b85045b68181585d2833e84879b9709143e1f593f00000017eeeb2cb5981ed45649abebde081dcff16c8601de4347e7dd1628ba2daac43b7830991507f30644e72e131a029b85045b68181585d2833e84879b9709143e1f593f000000180826107008601510983096107008401527f30644e72e131a029b85045b68181585d2833e84879b9709143e1f593f00000017eeeb2cb5981ed45649abebde081dcff16c8601de4347e7dd1628ba2daac43b7830991507f30644e72e131a029b85045b68181585d2833e84879b9709143e1f593f000000180826107208601510983096107208401527f30644e72e131a029b85045b68181585d2833e84879b9709143e1f593f00000017eeeb2cb5981ed45649abebde081dcff16c8601de4347e7dd1628ba2daac43b7830991507f30644e72e131a029b85045b68181585d2833e84879b9709143e1f593f000000180826107408601510983096107408401527f30644e72e131a029b85045b68181585d2833e84879b9709143e1f593f00000017eeeb2cb5981ed45649abebde081dcff16c8601de4347e7dd1628ba2daac43b7830991507f30644e72e131a029b85045b68181585d2833e84879b9709143e1f593f000000180826107608601510983096107608401527f30644e72e131a029b85045b68181585d2833e84879b9709143e1f593f00000017eeeb2cb5981ed45649abebde081dcff16c8601de4347e7dd1628ba2daac43b7830991507f30644e72e131a029b85045b68181585d2833e84879b9709143e1f593f000000180826107808601510983096107808401527f30644e72e131a029b85045b68181585d2833e84879b9709143e1f593f00000017eeeb2cb5981ed45649abebde081dcff16c8601de4347e7dd1628ba2daac43b7830991507f30644e72e131a029b85045b68181585d2833e84879b9709143e1f593f000000180826107a08601510983096107a08401527f30644e72e131a029b85045b68181585d2833e84879b9709143e1f593f00000017eeeb2cb5981ed45649abebde081dcff16c8601de4347e7dd1628ba2daac43b7830991507f30644e72e131a029b85045b68181585d2833e84879b9709143e1f593f000000180826107c08601510983096107c0840152505050565b60007f30644e72e131a029b85045b68181585d2833e84879b9709143e1f593f0000001807f30644e72e131a029b85045b68181585d2833e84879b9709143e1f593f000000160208601516102a0860151098303010690507f30644e72e131a029b85045b68181585d2833e84879b9709143e1f593f0000001807f30644e72e131a029b85045b68181585d2833e84879b9709143e1f593f000000160408601516102c0860151098303010690507f30644e72e131a029b85045b68181585d2833e84879b9709143e1f593f0000001807f30644e72e131a029b85045b68181585d2833e84879b9709143e1f593f000000160608601516102e0860151098303010690507f30644e72e131a029b85045b68181585d2833e84879b9709143e1f593f0000001807f30644e72e131a029b85045b68181585d2833e84879b9709143e1f593f00000016080860151610300860151098303010690507f30644e72e131a029b85045b68181585d2833e84879b9709143e1f593f0000001807f30644e72e131a029b85045b68181585d2833e84879b9709143e1f593f000000160a0860151610320860151098303010690507f30644e72e131a029b85045b68181585d2833e84879b9709143e1f593f0000001807f30644e72e131a029b85045b68181585d2833e84879b9709143e1f593f000000160c0860151610340860151098303010690507f30644e72e131a029b85045b68181585d2833e84879b9709143e1f593f0000001807f30644e72e131a029b85045b68181585d2833e84879b9709143e1f593f000000160e0860151610360860151098303010690507f30644e72e131a029b85045b68181585d2833e84879b9709143e1f593f0000001807f30644e72e131a029b85045b68181585d2833e84879b9709143e1f593f0000001610100860151610380860151098303010690507f30644e72e131a029b85045b68181585d2833e84879b9709143e1f593f0000001807f30644e72e131a029b85045b68181585d2833e84879b9709143e1f593f00000016101208601516103a0860151098303010690507f30644e72e131a029b85045b68181585d2833e84879b9709143e1f593f0000001807f30644e72e131a029b85045b68181585d2833e84879b9709143e1f593f00000016101408601516103c0860151098303010690507f30644e72e131a029b85045b68181585d2833e84879b9709143e1f593f0000001807f30644e72e131a029b85045b68181585d2833e84879b9709143e1f593f00000016101608601516103e0860151098303010690507f30644e72e131a029b85045b68181585d2833e84879b9709143e1f593f0000001807f30644e72e131a029b85045b68181585d2833e84879b9709143e1f593f0000001610180860151610400860151098303010690507f30644e72e131a029b85045b68181585d2833e84879b9709143e1f593f0000001807f30644e72e131a029b85045b68181585d2833e84879b9709143e1f593f00000016101a0860151610420860151098303010690507f30644e72e131a029b85045b68181585d2833e84879b9709143e1f593f0000001807f30644e72e131a029b85045b68181585d2833e84879b9709143e1f593f00000016101c0860151610440860151098303010690507f30644e72e131a029b85045b68181585d2833e84879b9709143e1f593f0000001807f30644e72e131a029b85045b68181585d2833e84879b9709143e1f593f00000016101e0860151610460860151098303010690507f30644e72e131a029b85045b68181585d2833e84879b9709143e1f593f0000001807f30644e72e131a029b85045b68181585d2833e84879b9709143e1f593f0000001610200860151610480860151098303010690507f30644e72e131a029b85045b68181585d2833e84879b9709143e1f593f0000001807f30644e72e131a029b85045b68181585d2833e84879b9709143e1f593f00000016102208601516104a0860151098303010690507f30644e72e131a029b85045b68181585d2833e84879b9709143e1f593f0000001807f30644e72e131a029b85045b68181585d2833e84879b9709143e1f593f00000016102408601516104c0860151098303010690507f30644e72e131a029b85045b68181585d2833e84879b9709143e1f593f0000001807f30644e72e131a029b85045b68181585d2833e84879b9709143e1f593f00000016102608601516104e0860151098303010690507f30644e72e131a029b85045b68181585d2833e84879b9709143e1f593f0000001807f30644e72e131a029b85045b68181585d2833e84879b9709143e1f593f0000001610280860151610500860151098303010690507f30644e72e131a029b85045b68181585d2833e84879b9709143e1f593f0000001807f30644e72e131a029b85045b68181585d2833e84879b9709143e1f593f00000016102a0860151610520860151098303010690507f30644e72e131a029b85045b68181585d2833e84879b9709143e1f593f0000001807f30644e72e131a029b85045b68181585d2833e84879b9709143e1f593f00000016102c0860151610540860151098303010690507f30644e72e131a029b85045b68181585d2833e84879b9709143e1f593f0000001807f30644e72e131a029b85045b68181585d2833e84879b9709143e1f593f00000016102e0860151610560860151098303010690507f30644e72e131a029b85045b68181585d2833e84879b9709143e1f593f0000001807f30644e72e131a029b85045b68181585d2833e84879b9709143e1f593f0000001610300860151610580860151098303010690507f30644e72e131a029b85045b68181585d2833e84879b9709143e1f593f0000001807f30644e72e131a029b85045b68181585d2833e84879b9709143e1f593f00000016103208601516105a0860151098303010690507f30644e72e131a029b85045b68181585d2833e84879b9709143e1f593f0000001807f30644e72e131a029b85045b68181585d2833e84879b9709143e1f593f00000016103408601516105c0860151098303010690507f30644e72e131a029b85045b68181585d2833e84879b9709143e1f593f0000001807f30644e72e131a029b85045b68181585d2833e84879b9709143e1f593f00000016103608601516105e0860151098303010690507f30644e72e131a029b85045b68181585d2833e84879b9709143e1f593f0000001807f30644e72e131a029b85045b68181585d2833e84879b9709143e1f593f0000001610380860151610600860151098303010690507f30644e72e131a029b85045b68181585d2833e84879b9709143e1f593f0000001807f30644e72e131a029b85045b68181585d2833e84879b9709143e1f593f00000016103a0860151610620860151098303010690507f30644e72e131a029b85045b68181585d2833e84879b9709143e1f593f0000001807f30644e72e131a029b85045b68181585d2833e84879b9709143e1f593f00000016103c0860151610640860151098303010690507f30644e72e131a029b85045b68181585d2833e84879b9709143e1f593f0000001807f30644e72e131a029b85045b68181585d2833e84879b9709143e1f593f00000016103e0860151610660860151098303010690507f30644e72e131a029b85045b68181585d2833e84879b9709143e1f593f0000001807f30644e72e131a029b85045b68181585d2833e84879b9709143e1f593f0000001610400860151610680860151098303010690507f30644e72e131a029b85045b68181585d2833e84879b9709143e1f593f0000001807f30644e72e131a029b85045b68181585d2833e84879b9709143e1f593f00000016104208601516106a0860151098303010690507f30644e72e131a029b85045b68181585d2833e84879b9709143e1f593f0000001807f30644e72e131a029b85045b68181585d2833e84879b9709143e1f593f00000016104408601516106c0860151098303010690507f30644e72e131a029b85045b68181585d2833e84879b9709143e1f593f0000001807f30644e72e131a029b85045b68181585d2833e84879b9709143e1f593f00000016104608601516106e0860151098303010690507f30644e72e131a029b85045b68181585d2833e84879b9709143e1f593f0000001807f30644e72e131a029b85045b68181585d2833e84879b9709143e1f593f0000001610480860151610700860151098303010690507f30644e72e131a029b85045b68181585d2833e84879b9709143e1f593f0000001807f30644e72e131a029b85045b68181585d2833e84879b9709143e1f593f00000016104a0860151610720860151098303010690507f30644e72e131a029b85045b68181585d2833e84879b9709143e1f593f0000001807f30644e72e131a029b85045b68181585d2833e84879b9709143e1f593f00000016104c0860151610740860151098303010690507f30644e72e131a029b85045b68181585d2833e84879b9709143e1f593f0000001807f30644e72e131a029b85045b68181585d2833e84879b9709143e1f593f00000016104e0860151610760860151098303010690507f30644e72e131a029b85045b68181585d2833e84879b9709143e1f593f0000001807f30644e72e131a029b85045b68181585d2833e84879b9709143e1f593f0000001610500860151610780860151098303010690507f30644e72e131a029b85045b68181585d2833e84879b9709143e1f593f0000001807f30644e72e131a029b85045b68181585d2833e84879b9709143e1f593f00000016105208601516107a0860151098303010690507f30644e72e131a029b85045b68181585d2833e84879b9709143e1f593f0000001807f30644e72e131a029b85045b68181585d2833e84879b9709143e1f593f00000016105408601516107c086015109830301069050806101a0830152505050565b60008060007f30644e72e131a029b85045b68181585d2833e84879b9709143e1f593f00000016101a08601516103208601510892507f30644e72e131a029b85045b68181585d2833e84879b9709143e1f593f000000160208601516102c08601510991507f30644e72e131a029b85045b68181585d2833e84879b9709143e1f593f0000001610260850151830891507f30644e72e131a029b85045b68181585d2833e84879b9709143e1f593f00000016040860151830891507f30644e72e131a029b85045b68181585d2833e84879b9709143e1f593f000000160208601516102e08601510990507f30644e72e131a029b85045b68181585d2833e84879b9709143e1f593f0000001610280850151820890507f30644e72e131a029b85045b68181585d2833e84879b9709143e1f593f00000016040860151820890507f30644e72e131a029b85045b68181585d2833e84879b9709143e1f593f000000181830991507f30644e72e131a029b85045b68181585d2833e84879b9709143e1f593f000000160408601516102a08601510890507f30644e72e131a029b85045b68181585d2833e84879b9709143e1f593f000000181830991507f30644e72e131a029b85045b68181585d2833e84879b9709143e1f593f0000001610300850151830991507f30644e72e131a029b85045b68181585d2833e84879b9709143e1f593f00000016000860151830991507f30644e72e131a029b85045b68181585d2833e84879b9709143e1f593f000000160008601516102a08701510990507f30644e72e131a029b85045b68181585d2833e84879b9709143e1f593f00000016000860151820990507f30644e72e131a029b85045b68181585d2833e84879b9709143e1f593f000000181830891507f30644e72e131a029b85045b68181585d2833e84879b9709143e1f593f0000001827f30644e72e131a029b85045b68181585d2833e84879b9709143e1f593f00000018501030692507f30644e72e131a029b85045b68181585d2833e84879b9709143e1f593f000000161028086015184099250826101c08601525050505050565b81518152602082015160208201525050565b6040518151815260208201516020820152825160408201526020830151606082015260408260808360066107d05a03fa806148fa576000805260206000f35b50505050565b6000604051835181526020840151602082015284604082015260408160608360076107d05a03fa915081614938576000805260206000f35b825160408201526020830151606082015260408360808360066107d05a03fa915081614968576000805260206000f35b5050505050565b600060405183815284602082015285604082015260408160608360076107d05a03fa9150816149a2576000805260206000f35b825160408201526020830151606082015260408360808360066107d05a03fa9150816149d2576000805260206000f35b505050505050565b600060405183815284602082015285604082015260408360608360076107d05a03fa915081614a0d576000805260206000f35b505050505050565b6101e08201614a286101e08301826148a9565b614a3c610180840151610220840183614900565b505050565b60008061022084017f30644e72e131a029b85045b68181585d2833e84879b9709143e1f593f000000160c0860151610260860151099250614ac4837f24e9f89269e29f758ec4f654b1eb87d7e810e73b309668ea277aaa6582eb98537f04a3ba494c5051ab55d4348e5352404552bae4edf78ec417ad52135f9de9e7d5846149da565b7f30644e72e131a029b85045b68181585d2833e84879b9709143e1f593f000000161028085015184099250614b3b837f2ee7693fd554e6565304ae786493636cdb5b1f697eb7b83a138b2b44979f22e67f29b642cdd1b5e00ed1b1ea61c132ffd4cc02cc92fb66563294367e270df57b938461496f565b7f30644e72e131a029b85045b68181585d2833e84879b9709143e1f593f000000160c0860151610280860151099250614bb6837f23b7229daa2734bd9d7d2c260e16d4dc10d612fe0e33768d68753117a38b3f737f18e250e4ce3c03bd3cd7f28290d5f17d86761d10bf298d4de90b4562beb0bb3d8461496f565b7f30644e72e131a029b85045b68181585d2833e84879b9709143e1f593f000000160c08601516102a0860151099250614c31837f10939f890dc5813c063add5a3b60c685e3195c75c6668bb5aef25a9dc93a6ffd7f190cd5e4e0f356c9be7128107ca72d221ccf6e3e37e2809c13d8400bc5403aae8461496f565b60c08501519250614c84837f1962c1ce27edb291af2870d4e0a1c1d0c3c71624001efff9e3d804a2af0321b27f16fa06deea4f2e66c52ebdc8642accc501d2854fb05c6fbc51bd4a2639cb811d8461496f565b7f30644e72e131a029b85045b68181585d2833e84879b9709143e1f593f000000160a08601516102608601510892507f30644e72e131a029b85045b68181585d2833e84879b9709143e1f593f00000016040860151840892507f30644e72e131a029b85045b68181585d2833e84879b9709143e1f593f000000160a086015160020991507f30644e72e131a029b85045b68181585d2833e84879b9709143e1f593f0000001610280850151830891507f30644e72e131a029b85045b68181585d2833e84879b9709143e1f593f00000016040860151830891507f30644e72e131a029b85045b68181585d2833e84879b9709143e1f593f000000182840992507f30644e72e131a029b85045b68181585d2833e84879b9709143e1f593f000000160a086015160030991507f30644e72e131a029b85045b68181585d2833e84879b9709143e1f593f00000016102a0850151830891507f30644e72e131a029b85045b68181585d2833e84879b9709143e1f593f00000016040860151830891507f30644e72e131a029b85045b68181585d2833e84879b9709143e1f593f000000182840992507f30644e72e131a029b85045b68181585d2833e84879b9709143e1f593f00000016000860151840992507f30644e72e131a029b85045b68181585d2833e84879b9709143e1f593f000000160c0860151840992507f30644e72e131a029b85045b68181585d2833e84879b9709143e1f593f000000160008601516102a08701510991507f30644e72e131a029b85045b68181585d2833e84879b9709143e1f593f00000016000860151830991507f30644e72e131a029b85045b68181585d2833e84879b9709143e1f593f000000160c0860151830991507f30644e72e131a029b85045b68181585d2833e84879b9709143e1f593f000000182840892507f30644e72e131a029b85045b68181585d2833e84879b9709143e1f593f000000161018086015184089250614f5f8360e0860183614900565b7f30644e72e131a029b85045b68181585d2833e84879b9709143e1f593f00000016102c085015160208701510992507f30644e72e131a029b85045b68181585d2833e84879b9709143e1f593f0000001610260850151840892507f30644e72e131a029b85045b68181585d2833e84879b9709143e1f593f00000016040860151840892507f30644e72e131a029b85045b68181585d2833e84879b9709143e1f593f00000016102e085015160208701510991507f30644e72e131a029b85045b68181585d2833e84879b9709143e1f593f0000001610280850151830891507f30644e72e131a029b85045b68181585d2833e84879b9709143e1f593f00000016040860151830891507f30644e72e131a029b85045b68181585d2833e84879b9709143e1f593f000000182840992507f30644e72e131a029b85045b68181585d2833e84879b9709143e1f593f00000016000860151840992507f30644e72e131a029b85045b68181585d2833e84879b9709143e1f593f000000160c0860151840992507f30644e72e131a029b85045b68181585d2833e84879b9709143e1f593f00000016020860151840992507f30644e72e131a029b85045b68181585d2833e84879b9709143e1f593f0000001610300850151840992507f30644e72e131a029b85045b68181585d2833e84879b9709143e1f593f0000001837f30644e72e131a029b85045b68181585d2833e84879b9709143e1f593f0000001030692506151c9837f0eb27f5f241781458844abdd77c7d9e70b44713782581a25b20069f7c07c674c7f1434e9c1f59b06f5bd91d1cc0ab16c3da03cc523a1c8f7fb841daa48bb0ce8b88461496f565b6151d76101208501826148bb565b608085015192506151ed83610160860183614900565b7f30644e72e131a029b85045b68181585d2833e84879b9709143e1f593f00000018384099250615222836101a0860183614900565b61523460e08601516020860183614900565b6152476101008601516060860183614900565b61525a61012086015160a0860183614900565b6152ab6101408601517f0f734e825efdc543312e67f33c4a8cdcdeddac9b6aa0fc75a808d316acd5be2b7f0c7a3fa85104a60f8cf5052cdb0da0c846d109fee303fd28dd8ed849666957328461496f565b6152fc6101608601517f19e0cc1f5266580c7d023ea7b5a5c597709afe4d29c0c36c3ff2a434230e08d57f07d78e579b5562abb55b6dc090a60ddffa3fc8daf4f8f371c2bb0721f20073d88461496f565b6101c085015192507f30644e72e131a029b85045b68181585d2833e84879b9709143e1f593f00000018060c087015161032087015109840892507f30644e72e131a029b85045b68181585d2833e84879b9709143e1f593f00000018060e087015161026087015109840892507f30644e72e131a029b85045b68181585d2833e84879b9709143e1f593f00000018061010087015161028087015109840892507f30644e72e131a029b85045b68181585d2833e84879b9709143e1f593f0000001806101208701516102a087015109840892507f30644e72e131a029b85045b68181585d2833e84879b9709143e1f593f0000001806101408701516102c087015109840892507f30644e72e131a029b85045b68181585d2833e84879b9709143e1f593f0000001806101608701516102e087015109840892507f30644e72e131a029b85045b68181585d2833e84879b9709143e1f593f00000018061018087015161030087015109840892507f30644e72e131a029b85045b68181585d2833e84879b9709143e1f593f0000001837f30644e72e131a029b85045b68181585d2833e84879b9709143e1f593f0000001030692506154bc83600260018461496f565b606085015192506154d2836101e0860183614900565b7f30644e72e131a029b85045b68181585d2833e84879b9709143e1f593f000000160608601516101808701510992507f30644e72e131a029b85045b68181585d2833e84879b9709143e1f593f00000017eeeb2cb5981ed45649abebde081dcff16c8601de4347e7dd1628ba2daac43b78409925061555583610220860183614900565b5050505050565b60006040516101e0830151815260206101e08401015160208201527f07208ca62ae001db78670a2328ba3fdac237fac1cdf522db42654a9cc9c60ea160408201527f1f2f87747b06ea8932b462856ee052117133f845d23757ff28d57e2b9835153860608201527f2829cb944ea2dce0888a4b550e9249120b229f2e1f47f76771477bd1c6bfa0b560808201527f05c1606dfed97df29cee8220f8306a4b83abbd6ca373c4ff3356674cc6993ea560a082015261022083015160c08201526020610220840101517f30644e72e131a029b85045b68181585d97816a916871ca8d3c208c16d87cfd47817f30644e72e131a029b85045b68181585d97816a916871ca8d3c208c16d87cfd47030690508060e08301527f198e9393920d483a7260bfb731fb5d25f1aa493335a9e71297e485b7aef312c26101008301527f1800deef121f1e76426a00665e5c4479674322d4f75edadd46debd5cd992f6ed6101208301527f090689d0585ff075ec9e99ad690c3395bc4b313370b38ef355acdadcd122975b6101408301527f12c85ea5db8c6deb4aab71808dcb408fe3d1e7690c43d37b4ce6cc0166fa7daa6101608301526020826101808460086107d05a03fa825181169350505050919050565b6040516107e0810160405261573d8461033b565b6157488382866103b4565b61575181610ac7565b61575b8382613778565b615765818561459b565b61576f8185614a15565b6157798185614a41565b6157828161555c565b6107e082036040528060005260206000f3fea26469706673582212204fc095f79d3b3df1d34b32b6ee9c92feee8d824b647490033ffe1e3983d9e63064736f6c63430007000033",
  "linkReferences": {},
  "deployedLinkReferences": {}
}